:020000040800F2
:1034000010470020D13500083F5900081952000824
:1034100025580008E94200082D800008000000003F
:103420000000000000000000000000003935000826
:10343000054D0008000000007D35000861AD000862
:10344000EB350008EB350008EB350008EB350008DC
:10345000EB350008EB350008EB350008EB350008CC
:10346000EB350008EB350008EB350008EB350008BC
:10347000EB350008EB350008EB350008EB350008AC
:10348000EB350008EB350008EB350008EB3500089C
:10349000A57F0008EB350008EB350008EB35000888
:1034A000EB350008EB350008EB350008EB3500087C
:1034B000EB350008B5760008EB350008EB35000861
:1034C000EB350008EB350008EB350008EB3500085C
:1034D000EB350008EB350008EB350008EB3500084C
:1034E000EB350008EB350008C57D0008DFF80CD08F
:1034F00000F0F8FC004800479194000810470020B5
:10350000EFF30980704780F309887047EFF3088074
:10351000704780F30888704740BA7047C0BA704758
:103520004FF0010080F31388014802490160FEE773
:103530000CED00E00400FA05224B19680868B0E8B9
:10354000F00F80F30988BFF36F8F4FF0000080F316
:1035500011884EF00D0E704700000000064800680C
:10356000006880F3088862B661B6BFF34F8FBFF37F
:103570006F8F00DF00BF00BF08ED00E0EFF30980B0
:10358000BFF36F8F0F4B1A6820E9F00F106008B57A
:103590004FF0BF0080F31188BFF34F8FBFF36F8FE1
:1035A00007F09EFB4FF0000080F31188BDE8084053
:1035B00019680868B0E8F00F80F30988BFF36F8FCF
:1035C000704700BF58030020EFF3058070470000EC
:1035D0000648804706480047FEE7FEE7FEE7FEE7AD
:1035E000FEE7FEE7FEE7FEE7FEE7FEE7657600089A
:1035F000ED3400082DE9F0410024061B254671F149
:10360000000605DA01240027D0EB070067EB010173
:10361000161E73F1000605DA0027D2EB070201251A
:1036200067EB030300F01AFB86460E4617469C46DE
:10363000AC4204D00025D0EB050E65EB010624B1A9
:103640000020D2EB000760EB030C704631463A468F
:103650006346BDE8F08140EA01039B0703D009E01F
:1036600008C9121F08C0042AFAD203E011F8013B6E
:1036700000F8013B521EF9D27047F0B480EA010213
:10368000D40F4200B2EB410F02D202460846114667
:103690004A0042D0C30DDDB2C1F3C752AD1A202D8E
:1036A00035DAC1F3160141F4000204B15242C5F10A
:1036B000200602FA06F12A411044B3EBD05F23D072
:1036C000C4B1012DA0EBC35009DCF0BC4FF00042A7
:1036D00002EAC352DBB200F5000000F01ABB400062
:1036E00000F1807000EBC350A0F1807040EAD1700F
:1036F000490009E0490841EAC071A0EBC35000F558
:103700000000400800EBC350F0BC00F0F9BA614281
:10371000012202EB4101001BF6E7F0BC704781F08B
:103720000041AAE780F00040A7E780EA010210B557
:1037300002F00043400022D04A001FD0010E01EBEE
:103740001261C0F35600C2F3560240F4000042F486
:103750000002A0FB022000047F39140400D0401CAA
:1037600050EA124001D44000491EC2B20C0604EBDC
:10377000D010401C4008802A02D003E0002010BD79
:1037800020F00100002900DA0020184310BD30B4F9
:1037900080EA010202F0004530F0004221F00040D2
:1037A00013D090B1C30DD40DC2F31601C0F31600AF
:1037B000E41A41F4000140F400027D34914201D347
:1037C000641C00E04900002C02DA30BC0020704785
:1037D0004FF400000023914201D3891A03434008AB
:1037E0004FEA4101F7D151B1914202D14FF000416E
:1037F00005E002D24FF0010101E06FF0010103EB9F
:10380000C450284430BC00F07BBA420005D0C0F35D
:10381000C7525242914201DC0020704700EBC15078
:1038200070472DE9FE4F804681EA0300C00F0C4629
:10383000009021F0004123F00045B8EB0200A941BF
:1038400005D24046214690461C460B46024623F0D0
:103850000040104347D0270DC7F30A00C3F30A51B5
:103860000290401A019040286BDAC3F3130040F431
:10387000801B0098924620B10023D2EB030A63EB31
:103880000B0B01985946C0F14002504600F017FA60
:1038900006460D4650465946019A00F01FFA10EBB5
:1038A00008006141002487EA115284EAE7731A4351
:1038B00040D0009A62B3019A012A4FEA075215DC00
:1038C000001B61EB02014FF0004202EA0752CDE912
:1038D0000042001C41F5801132462B4600F074FA7C
:1038E00003B0BDE8F08F40462146F9E7001B61EBCD
:1038F0000201001C41F5801300185B412018A2F55D
:10390000001747EB030140EAD570B6196D4111E08D
:103910006D084FEA360645EAC0754FEA0752001BAC
:1039200061EB0201001C41F5801149084FEA3000AB
:103930000019514132462B4603B0BDE8F04F00F06C
:1039400034BA0098012240000023D0EB020263EB5E
:10395000E073009821464FEAE074B8EB000061EB99
:103960000401E9E783F000435BE781F0004158E799
:103970002DE9FE4F81EA030404F0004421F00041E8
:1039800000944FF0000B23F0004350EA01045ED096
:1039900052EA03045BD0C3F30A54C1F30A552C4422
:1039A000A4F2F3340194A0FB0254C1F3130141F4D7
:1039B0008011C3F3130343F4801301FB024400FBA3
:1039C000034E840A970A44EA815447EA8357A4FBCA
:1039D000076802958D0A05FB07854FEA932C04FBC7
:1039E0000C542705029D4FEA065847EA1637B5EBF7
:1039F00008056EEB070C870E920E47EA811742EA24
:103A00008312A7FB0201B6EB0B0164EB00042B0D44
:103A100043EA0C335E1844EB1C50DA465146E7FB90
:103A20000201C5F313044FEA0B3343EA14534FEA80
:103A30000432019C43EA0603A4F10C040294009CA6
:103A4000CDE900B400F0C0F903B0BDE8F08F00206C
:103A50000146F9E72DE9F04D81EA030404F0004B3B
:103A600021F0004514464FF0000A23F0004150EACF
:103A7000050220D054EA01021DD0C5F30A570246C0
:103A8000C5F31303C1F31300C1F30A5640F48015C4
:103A900043F48013A7EB0608101BD64608F2FD3846
:103AA00073EB050002D308F1010801E092185B41B5
:103AB000B8F1000F03DA00200146BDE8F08D0020C8
:103AC0004FF48011064684460EE0171B73EB050782
:103AD00005D3121B63EB050306434CEA010C4908AE
:103AE0004FEA300092185B4150EA0107EDD152EAEB
:103AF000030012D082EA040083EA0501084305D0DE
:103B0000101BAB4106D20122002306E000224FF039
:103B1000004302E06FF0010253101AEB06004CEB79
:103B2000085110EB0A0041EB0B01BDE8F04D00F02D
:103B30003CB9C10F80EAE0700844CA07962300210F
:103B400000F0E7B896230022114600F0E2B800F03A
:103B5000004220F00040C10DC0F3160040F4000008
:103B60007F2901DA00207047962903DCC1F1960114
:103B7000C84001E096398840002AF4D0404270479E
:103B800020F00040C10DC0F3160040F400007F2972
:103B900001DA00207047962903DCC1F19601C84084
:103BA000704796398840704700F0004230F000407E
:103BB0000AD0C10D01F56071C0F3160042EA01514F
:103BC000C20840071143704700200146704701F0CA
:103BD000004330B421F0004150EA010206D00A0D42
:103BE000A2F56072C1F31301002A02DC30BC002090
:103BF0007047440F44EAC104C100E01830BC00EB38
:103C0000C25000F07DB80000002801DBC0F1004088
:103C1000002901DBC1F1004181427047002801DB2E
:103C2000C0F10040002901DBC1F10041884270472A
:103C300030B50B46014600202022012409E021FA7C
:103C400002F59D4205D303FA02F5491B04FA02F579
:103C50002844151EA2F10102F1DC30BD2DE9F05F10
:103C60000546002092469B468846064681464024EB
:103C70001BE0284641464746224600F045F9534698
:103C80005A46C01A914110D311461846224600F0F8
:103C900016F82D1A67EB01084F4622460120002135
:103CA00000F00DF817EB00094E41201EA4F10104AD
:103CB000DFDC484631462A464346BDE8F09F202ACD
:103CC00004DB203A00FA02F1002070479140C2F173
:103CD000200320FA03F3194390407047202A06DBA3
:103CE000CB17203A41FA02F043EAE07306E041FACA
:103CF00002F3D040C2F120029140084319467047B8
:103D00000029A8BF7047401C490008BF20F00100EF
:103D1000704710B4B0FA80FC00FA0CF050EA0104CD
:103D200004BF10BC704749B1CCF1200421FA04F45F
:103D300011FA0CF118BF012121430843A3EB0C0138
:103D4000CB1D4FEA00614FEA102042BF002010BC9B
:103D5000704700EBC35010440029A4BF10BC70474B
:103D6000401C490008BF20F0010010BC704710B58E
:103D700041000CD0C0F3C751962908DC7E2909DC2C
:103D800006DB410204D000F0004040F07E5010BD40
:103D9000002010BDC1F19604C4F1200100FA01F128
:103DA000E040FFF7ADFFA04010BD10B5141E73F149
:103DB000000408DA401C41F1000192185B411A43EB
:103DC00001D120F0010010BD2DE9F04D92469B4637
:103DD00011B1B1FA81F202E0B0FA80F220329046DD
:103DE000FFF76DFF04460F4640EA0A0041EA0B0167
:103DF00053465A46084313D0114653EA010019D0DE
:103E0000C8F14002504600F07FF805460E46504685
:103E100059464246FFF753FF084305D0012004E00E
:103E200020463946BDE8F08D0020054346EAE0769D
:103E30002C4337430A986305E40AA0EB08000022EC
:103E4000FD0A44EA47540A3002D500200146E9E75A
:103E5000010510196941DDE9084500196941BDE80E
:103E6000F04DA2E770B521F0004303430CD0C1F33D
:103E70000A550024D5EB040564EB0403D617AD1AEC
:103E8000B34102DB0020014670BD201841EB025116
:103E900070BD0EB5C10F80EAE0700844CA0700216A
:103EA00040F233438DE80E000A460B46FFF78CFFC5
:103EB00003B000BD30B5041E71F1000404DB4FF007
:103EC0000044404264EB0101141E73F1000405DB61
:103ED0001C464FF00043524263EB0403994208BF73
:103EE000904230BD064C074D06E0E06840F001030B
:103EF00094E8070098471034AC42F6D3FFF7FAFA7B
:103F0000B0B40008D0B40008202A04DB203A21FA1B
:103F100002F00021704721FA02F3D040C2F12002E2
:103F20009140084319467047F0B4002802DCF0BC09
:103F300000207047C0F3C751C0F3160040F40000E2
:103F4000CA0701D14000491E3F2202EB6105002251
:103F500011464FF4000626FA01F31344D4188442A4
:103F600001D8001B1A464000491C1729F3DD5100F7
:103F7000814202D24FF0FF3100E0002102EBC55038
:103F8000F0BCFFF7BDBE2DE9F04D00231A461B1A09
:103F90008A4103DB00200146BDE8F08DC1F30A52DF
:103FA000C1F3130141F480154FF0000BD10702D18A
:103FB00000186D41521E0027044640F2FF1138469A
:103FC00001EB620A3E468046024600204FF4801113
:103FD000FFF79AFFC2197141BB1846EB0100B4EB21
:103FE000030C75EB000C04D3E41A65EB00051746CF
:103FF0000E46241908F101006D4180463428E3DDA6
:10400000F91946EB0600091BA84103D24FF0FF3215
:10401000134601E0002213461BEB070046EB0A5152
:10402000BDE8F04DFFF7C1BE70B58C1810F8015B0C
:1040300015F0070301D110F8013B2A1106D110F841
:10404000012B03E010F8016B01F8016B5B1EF9D145
:104050002B0705D40023521E0DD401F8013BFAE7CB
:1040600010F8013BCB1A921C03E013F8015B01F836
:10407000015B521EF9D5A142D8D3002070BD0029A2
:10408000816802D041F0010101E021F0010181606D
:104090007047014600208968490700D50120704714
:1040A000C06C80B270470246002012680A4200D0FD
:1040B00001207047014600208968090700D50120CA
:1040C0007047000010B542680E4B0C791A400B681F
:1040D00042EA04221343436082680B4B1A40D1E941
:1040E000024323434C7942EA440213438360C26A89
:1040F000097C22F47002491EC9B242EA0151C16230
:1041000010BD0000FFFEF0FFFDF7F1FF70B50726C0
:1041100009290AD9C568A1F10A0404EB4404A640A0
:10412000B543A3401D43C56007E0056901EB4104A9
:10413000A640B543A3401D4305611F23072A09D2AA
:10414000446B521E02EB820293409C4391400C430D
:10415000446370BD0D2A09D2046BD21F02EB8202A8
:1041600093409C4391400C43046370BDC46A0D3A74
:1041700002EB820293409C4391400C43C46270BDA9
:10418000816841F00801816070470029816802D090
:1041900041F4A00101E021F4A00181607047816831
:1041A00041F00401816070472DE9F047334D687993
:1041B000344F334EDFF8D090DFF8D080A7F5B474D9
:1041C000E8B33169F868FFF7AAFAC4F8300110F1D2
:1041D000FF4F01D380F000402D4988420CDA2D4971
:1041E0000020C1F89401C1F890012B49C1F8A00149
:1041F000C1F89001C4F83001224800224B46114614
:104200005C3802F0C1FBF168D4F82C01FFF787FAA3
:104210001B4AC4F85C011B480C324B461646012170
:10422000303802F0B1FB687988B11649324610394E
:104230001A4804F0D1FF3969D4F8580100E00CE0C5
:10424000FFF71BFA1549C4F8580114394861687919
:1042500068B1D4F85801BDE8F087B8F90400FFF759
:1042600068FCD4F85811FFF75AFAF168CEE7B8F9AC
:104270000400BDE8F047FFF75CBC0000100400201C
:10428000FC030020E80600206F12833BBC010020E5
:104290000AD7A33C0080214200002142B80100203F
:1042A00010B502F00BFD054801F00EFE0349BDE814
:1042B00010401C39014801F0F1BF00000802002045
:1042C000074810B50068804703F08CFD05F020F822
:1042D00000F0BAFF03480068BDE810400047000046
:1042E0001801002004010020FEE7C1B2000A40EAE4
:1042F000012070472DE9F84F0020ADF800004BF683
:10430000BF7648F280084A4D4A4C40F68F7ADFF873
:10431000289148F60F7B494F2FE0088810F00F00D6
:1043200089F8000032D007EB8001D1F8002CADF8FD
:104330000020BDF8002012040BD5D1F8002C02EAB1
:104340000A02C1F8002C3E4901EB800050F8040C31
:104350008047BDF8000000060FD599F8000007EB74
:104360008001D1F8002C02EA0B02C1F8002C35497B
:1043700001EB800050F8040C80472D484430006861
:10438000314908800004C8D4BDE8F88F286820802F
:10439000208800F030006080208800F440502080A9
:1043A0002868304080F4005080F0200040EA080087
:1043B00028600888C00617D4296801EA0B01296023
:1043C00001F0A6F828E02188890401D580F4005086
:1043D0006188C90628D46188890601D580F020004B
:1043E00040EA08002860CFE72868ADF80000BDF873
:1043F0000000000506D5296801EA0A01296002F0DB
:10440000BDFE09E0BDF800000004B6D5286800EA4A
:104410000A00286001F096FC286821883040C90411
:10442000D1D580F48050CEE780F01000D3E70000B3
:10443000005C00404E0300203C0300200050004080
:10444000780200205C020020520200202DE9FC5F6F
:10445000DFF8E4814546B8F90200A0F2DC50FFF72E
:1044600068FB764E764F3246394602F0C1FBDFF8E4
:10447000D4914946FFF759F9734C2060B5F9000013
:10448000A0F2DC50FFF755FB3246394602F0B0FB94
:104490004946FFF74AF96060A87ADFF8B0916C4F9F
:1044A000002620B199F8010040B126606660694D90
:1044B000A87998B3687B012829D02FE0A169F86812
:1044C000FFF72DF9054604F039FD0190284606F066
:1044D000E3F80090D4E9005A01462846FFF725F991
:1044E000834650460199FFF720F95946FFF7C5F872
:1044F000606050460099FFF718F9824628460199F6
:10450000FFF713F95146FFF70AF92060CFE72E7144
:10451000022068734FF42F71A8F80410B8F9040052
:10452000012332280DDD6878012807D06B70B86947
:10453000A06098F80A0008B1F868A061A9F80460C2
:104540001CE098F80D00012800D00020687328793D
:1045500060B9B9F8040040F6B832401C80B2A9F83E
:104560000400904202D9A9F804602B716E70B869FA
:10457000A06098F80A0008B1F868A061B8F90600D0
:10458000A0F5AF61C9291BD3A0F2DC5000B2FFF740
:10459000D0FA3149FFF7FBF83049FFF7C6F8A168B8
:1045A000FFF76BF82E4A2F49A060904202DDFFF71B
:1045B000B6F804E02C4A904202D9FFF75EF8A060FA
:1045C00098F80A00012801D103F0A8FA687970B3BD
:1045D000B8F90400A0F5E171C92926D3FFF7A9FABB
:1045E0002249FFF79CF8224DB0F5000F02DB294667
:1045F000FFF795F810F1FF4F02D32946FFF73DF87A
:104600001C49FFF7C4F8FFF7CFFA1B4A1B4BFFF713
:10461000AFF905460E46E068FFF7C6FA2A4633466C
:10462000FFF7FFF8FFF7D3FAE060BDE8FC9FFFE774
:1046300013480069F8E70000BC0100200000484270
:104640000000FA43000020C2E8060020A401002078
:10465000EC0100201004002000004843CDCCCC3DEC
:10466000000034430000B443000034C30080094418
:104670000000C8420000C843FCA9F1D24D62503F7F
:10468000FC030020810008480844D0F8001C4904BD
:1046900009D5D0F8001C48F68F7211404CF2800208
:1046A0001143C0F8001C70470050004081000848CA
:1046B0000844D0F8001C490609D5D0F8001C48F67B
:1046C0008F72114048F2C0021143C0F8001C7047BD
:1046D00000500040810006480844D0F8001C48F60D
:1046E0008F62114048F280021143C0F8001C7047ED
:1046F000005000402DE9F84FFFF7A8FE3B4C4FF06B
:1047000000082078022859D3394E84F8008004F537
:10471000B47531692868FFF702F8A06271696868AA
:10472000FEF7FDFFC4F88000B669AD683146284643
:10473000FEF7F5FF2F4FDFF8C0B0B84201DC584557
:1047400025D94FF4000ADFF8B49055450FDB4E45EC
:104750000DD339462846FEF7E2FF00903146584611
:10476000FEF7DDFF0099FEF788FFC4F8D8004D453D
:104770000FD356450DDB39462846FEF77EFF05462A
:1047800031463846FEF7CBFF2946FEF776FFC4F8E0
:10479000D8001B4D00222B461146201D02F0F4F8D4
:1047A000124800222B4611465C3002F0EDF80F480B
:1047B00000222B461146B43002F0E6F86078022859
:1047C00007D384F80180FFF7EFFCFFF7C0F9C4F8C6
:1047D00064012078401C20706078401C607000F0FC
:1047E00011F8BDE8F84F01F01FB800008005002067
:1047F000EC01002000003443000034C3000080803E
:104800006F12833B2DE9F047DFF80C8198F80C001C
:10481000424C434EDFF80C9103281BD10025656202
:104820004148C4F8D450E0674946F06CFEF77DFF7C
:104830003E4FB968FEF721FFB86010F1FF4F01D37A
:1048400080F000403A49884204DB88F80C507D70C3
:1048500000F0A8FE316D606AFEF761FF6065F16CE3
:10486000E06FFEF75CFFC4F8AC00716DD4F8D400C3
:10487000FEF755FFC4F80401294A28484D464B4627
:1048800050320121303002F07FF8254A23482B4670
:104890004C320121883002F077F8214A1F482B461C
:1048A00054320121E03002F06FF84FF0FF37394603
:1048B000606AFEF7AAFFFFF777F905460E46206DFE
:1048C000FFF772F9DFF86C80DFF86C9042464B46D8
:1048D000FFF74EF82A463346FEF7A3FFFFF777F9B6
:1048E00020653946E06FFEF790FFFFF75DF905465A
:1048F0000E46D4F8A800FFF757F942464B46FFF79B
:1049000037F82A463346FEF78CFFFFF760F9C4F804
:10491000A800BDE8F08700001004002080050020FA
:10492000140000206F12033B0000C842A4010020C5
:104930000000B4439A9999999999E93F0A2839D87E
:1049400090B31D4924220B280A7033D2DFE800F00F
:1049500032060A0E12161A1E22272D000520487153
:1049600006207047092048720A2070470D204873BE
:104970000E2070471120487412207047152048758A
:1049800016207047192048761A2070471D20487756
:104990001E207047212081F8210022207047252009
:1049A00081F825002620704704E0292081F829009D
:1049B0002A20F8E70020F6E7B403002013B50A29FF
:1049C00012D8002910D00B290ED2DFE801F00D0615
:1049D000080E10121416181A1C00012200E00522FD
:1049E0000A49684600F0D2FA1CBD0922F8E70D22F8
:1049F000F6E71122F4E71522F2E71922F0E71D226B
:104A0000EEE72122ECE72522EAE70000B4030020CC
:104A10002DE9F047DFF89490254F4FF03008D9F892
:104A2000001001F11005088A0E7A08B9042E04D08E
:104A3000AC88A04215D8042614E01E48017801294C
:104A400003D00726102038802BE01B4A0021126873
:104A50001A4B120403EBD2325160A7F800800170A8
:104A60001FE00226844200D90446A96820468847F0
:104A70008246002000F0A8FB01462246504603F083
:104A8000D7FA2146002002F095FA2888001B2880DA
:104A9000688820446880A7F8008009494FF4405096
:104AA0000880D9F800000672BDE8F08740030020B6
:104AB0005003002038030020505C0040006000409C
:104AC0004E0300202DE9F047224EDFF88C8030277E
:104AD000346834F8100FA168A9B100B3A5888542E5
:104AE00000D905462846884781462088401B2080FB
:104AF000608828446080002000F046FB01462A467A
:104B0000484601F043F9208848B114494FF4405019
:104B100008800021084602F04DFAA8F800702088AD
:104B2000A188884201D3032001E020B1052031682B
:104B30000872BDE8F0873168062008720849002035
:104B40000968084A090402EBD1314860A8F80070EE
:104B5000EFE7000040030020500300204E03002038
:104B6000505C004000600040F8B55D4C5D4D09268A
:104B70002068002729684278062A05D0AAB1082AA9
:104B80004DD00A2A50D06BE00278520668D1807866
:104B9000012804D0022804D0032804D060E0C969A9
:104BA00056E0096A54E0496A52E04288B2BBC288C2
:104BB000022A55D102798ABB0278530601D1838833
:104BC00033B102F07F02012A04D0022A0CD047E060
:104BD00045493DE08A69407900219047F0B9206855
:104BE000807A0028F4D13BE0417901F00F0001F018
:104BF00070020B063D4901EB8001D1F8001C03D582
:104C0000C1F30111090102E0C1F301310903384B7D
:104C10001B78834224D90AB90029D9D120E0007831
:104C200040061DD1334913E0027802F07F02012AC9
:104C300016D1827AA2B1428892B9027982B9C28829
:104C4000012A0DD18A6940790021904740B92A494B
:104C500031B120684782816100208847002006E04A
:104C600029682068096940788847032813D021689B
:104C70000A8AA2F57F43FF3B0BD002280ED06AB10F
:104C80000878000626D5C888009082420AD9088292
:104C900018E00E72F8BD20680672F8BD4FF00800EB
:104CA0000872F8BD0ED22868144B90F82C0082428E
:104CB00001D21F7006E0B2FBF0F400FB142008B92B
:104CC00001201870286890F82C008882BDE8F84010
:104CD000FFF79EBE03200872094900030880F8BD53
:104CE0004003002044030020E5730008005000400A
:104CF0000003002079730008BD730008380300200A
:104D00004E030020704701B44FF47A71009801B04F
:104D10004843AFF3008001B5002104E00020401CAF
:104D20000228FCDB491C00988142F7D308BD000033
:104D300070B50E4D2878012815D140210C4803F09C
:104D400065F90404240C4FF000060DD02246C02162
:104D5000074803F06DF92146012002F02BF90120EC
:104D600002F04EF96E6070BD2E7070BD48020020DA
:104D70002411002010B50649032003F035F981B253
:104D8000034803F019F9BDE81040032002F0F0B821
:104D900064110020014908607047000014040140BC
:104DA00030B51A4A8379016853B313688B43136093
:104DB000111D0B680468A3430B60017911440B6853
:104DC000046823430B60114B083319680468A1433E
:104DD00019601C1D21680568A943216041791029CB
:104DE00005D011440A68006802430A6030BD1968A2
:104DF000026811431960216800680143216030BDD9
:104E00000079104402688A43026030BD000401400A
:104E100070B505464FF43026304600F085F804287A
:104E200011D1094C206940F00200206165612069C0
:104E300040F040002061304600F076F8216941F6EC
:104E4000FD721140216170BD00200240084904201C
:104E5000CA68D20701D001207047CA68520701D53D
:104E600002207047C968C906FBD5032070470000BF
:104E7000002002400248016941F080010161704751
:104E800000200240F0B506464FF400570D46384664
:104E900000F04AF804280CD1064C206940F00100CB
:104EA00020613580384600F03FF82169BA1E114074
:104EB0002161F0BD002002402DE9F84106460020A6
:104EC0004FF4005700900D46384600F02DF80428A6
:104ED00016D10C4C206940F0010020613580B846A5
:104EE000384600F021F8BF1E042806D1B61C280C55
:104EF00000963080404600F017F821693940216162
:104F0000BDE8F881002002400088704700687047C3
:104F100003480249416003494160704723016745E6
:104F200000200240AB89EFCD00B50346FFF78EFFAE
:104F300002E0FFF78BFF5B1E012803D0002B00D19E
:104F4000052000BD002BF4D1FAE7000070B50D4C30
:104F500001202071002525702572A5726572E57209
:104F6000A070E570657065712573A5716573E57155
:104F700005F00CFF2061012005F008FF6061024888
:104F8000057070BD100400208005002003788B544C
:104F9000114443784B7082788A70C078C87070472B
:104FA000254910B5884206D10121042001F0D6FA26
:104FB000002104203BE02149884206D1012108203C
:104FC00001F0CCFA0021082031E01D49884206D1C9
:104FD0000121102001F0C2FA0021102027E0194918
:104FE000884206D10121202001F0B8FA00212020BA
:104FF0001DE01549884206D10121402001F0AEFA9A
:105000000021402013E01149884206D1012180206F
:1050100001F0A4FA0021802009E00D4988420AD15C
:1050200084150121204601F099FA00212046BDE8AF
:10503000104001F093BA10BD00080140000C01407F
:10504000001001400014014000180140001C014004
:1050500000200140F0B5CC78002204F00F03E406F4
:1050600001D58C7823430C784FF00F0C14F0FF0F10
:105070004FF0010E1BD005680E880EFA02F4264090
:10508000A64210D196000CFA06F725EA070703FAA4
:1050900006F5CE783D43282E02D0482E02D002E0FD
:1050A000446100E00461521C082AE5D305600A88C7
:1050B000FF2A1CD94468002202F108060EFA06F500
:1050C0000E882E40AE420ED196000CFA06F7BC4375
:1050D00003FA06F7CE783C43282E00D14561CE78FE
:1050E000482E00D10561521C082AE5D34460F0BD6A
:1050F000F0B5144C002801DAE36900E06368450D5F
:105100002E0185B2C0F30157B540C0F30342032F0F
:1051100005D0C6020AD503269640B34307E023F024
:105120007062636823F07063636002E0AB4343F036
:10513000706201B12A43002801DAE261F0BD6260C9
:10514000F0BD000000000140F8B50C4606461546CB
:1051500001211C2001F0F6F9ADF800408DF8035054
:1051600003218DF8021069463046FFF773FFF8BD42
:105170000246002092680A4200D001207047416137
:1051800070470161704700000549096889B201EB69
:10519000C000044901EB4000008980B27047000064
:1051A000505C0040006000400549096889B201EB8D
:1051B000C000044901EB40008089C0F3090070473A
:1051C000505C0040006000400449096889B201EB6E
:1051D000C000034931F8100080B27047505C0040B5
:1051E000006000400A4810B50168001D0468001DF9
:1051F000006808180BD00822064900F0B7F90549E5
:1052000020460422BDE81040103100F0AFB910BDB7
:10521000E8F7FF1F26020020FEE70000094800B55E
:105220004021016000F00CF98022026000F008F9D2
:10523000044A121F116000F003F901605DF804EBED
:1052400000F0FEB8140C0140F8B50121082001F06F
:1052500079F94020ADF8000003240F4E8DF802408C
:1052600014258DF8035069463046FFF7F3FE802081
:10527000ADF800008DF802408DF8035069463046C5
:10528000FFF7E8FE0520FFF73EFD00F0A3F805203C
:10529000FFF739FDF8BD0000000C0140094900B5D9
:1052A0004020086000F0CCF8064A8023121F1360EB
:1052B00000F0C6F8106000F0C3F808605DF804EB79
:1052C00000F0BEB8140C014070B50E4C082100204F
:1052D000802222600B4D4022231D083D0CE0400639
:1052E000000E1A6000F0ACF8226000F0A9F82E68F9
:1052F000360601D540F00100491EC9B2EFD21A604E
:1053000070BD0000100C0140F0B51F4615460E465A
:10531000044600F043F8204600F024F800F070F84E
:10532000304600F01FF800F06BF800F037F8641C0E
:10533000E0B200F017F800F063F800246E1E0AE0F7
:10534000FFF7C2FF3855B44202D1FFF7A7FF01E0D3
:10535000FFF764FF641CAC42F2DBBDE8F04000F0F4
:1053600039B8000070B50C4A082180244023151F6D
:105370000DE000F065F8060601D52C6000E0146031
:105380004006000E00F05CF82B6000F059F8491E52
:10539000C9B21360EDD270BD140C01400C4900B5C8
:1053A0008020086040220A6000F04AF80849083965
:1053B0000A68074A121D106000F042F809680906E1
:1053C00001D5002000BD106000F03AF8012000BDBA
:1053D000100C0140094800B54022026000F030F88E
:1053E0008021016000F02CF80448001F026000F0EA
:1053F00027F801605DF804EB00F022B8140C0140BE
:105400000E4900B54020086000F01AF80B4A8023CE
:10541000121F136000F014F8106000F011F8074A32
:105420000C3A12680860120603D500F009F8002053
:1054300000BD00F005F8012000BD0000140C014083
:1054400000BF00BF00BF00BF00BF00BF00BF00BF64
:1054500000BF70472DE9F05F1646DDE90AB7DDF8B9
:1054600034A099467A1E12B2002A07DD06EBC20369
:10547000521E73E90245C3E90245F4E70025C6E977
:105480000001A8462C4611E00BEBC40006EBC4015A
:10549000D0E90023D1E90001FEF76AFA2A46434623
:1054A000FEF7BFF9641C0546884624B2BC42EBDB1C
:1054B000AAF1010006E009EBC001401E71E90223D8
:1054C000C1E9022300B20028F5DC0026374601249A
:1054D00012E00C9809EBC40100EBC400D0E90023F2
:1054E000D1E90001FEF744FA32463B46FEF799F94E
:1054F000641C06460F4624B25445EADB32463B465E
:1055000028464146FEF72EFAC9E90001BDE8F09FA2
:1055100010B5134C2068017A022904D0042902D066
:10552000062905D015E0FFF773FA2068007A11E02C
:105530004178052909D10178490606D1C07801F0E2
:10554000ABFC08480068006A80470748006880682C
:105550008047082021680872BDE8104000F028BC90
:10556000400300204803002044030020F0B500233E
:105570000A24302537261F4610E0B4EB107F02D9ED
:1055800005EB107C01E006EB107C01F813C001EB89
:10559000430C00015B1C8CF80170DBB29342ECD32E
:1055A000F0BD0000064800210161C163C0F89410FD
:1055B0008166C0F8C010C0F8EC10C0F81811704730
:1055C0008005002010B505F027FA00211248FFF7EA
:1055D0008FFD00211148FFF78BFD00F0CBFF4FF04E
:1055E000804002F07BF80E48FFF7DAFC0D48FFF729
:1055F000D7FC0D48FFF7D4FC0C4802F0A9FB00F0E3
:10560000DBFA4FF00061D1E90004FDF782FFA44608
:10561000BDE8104060470000000430000002300088
:1056200000080140000C014000100140003801401A
:1056300070B516460A46054631461046FEF775F81F
:10564000044631464FF07E50FEF769F82946FEF7D2
:105650006CF82146BDE87040FEF70FB80448817A27
:10566000044809B1052100E00121016070470000F4
:10567000C4110020280300202DE9FF5F6B460E2295
:105680003B21D020FFF740FEBDF80000624C40BA3D
:1056900007B22781BDF80200BB4640BA06B2668158
:1056A000BDF8040040BA05B2A581BDF8080040BAB3
:1056B00000B220868146BDF80A0040BA00B260867A
:1056C0008046BDF80C0040BA00B2A0868246B4F90C
:1056D0001C00381AFEF72DFA2061B4F91E00301AAA
:1056E000FEF727FA60612846FEF723FAA061B4F9B5
:1056F0004410A9EB0100FEF71CFAA063B4F94610B0
:10570000A8EB0100FEF715FAE063B4F94810AAEB24
:105710000100FEF70EFADFF8048163374FF0010A4B
:105720004FF000092064C62F09D806F16300C6288F
:1057300005D805F16300C62801D8504600E0484668
:1057400088F8060098F80800C82768B388F804A00D
:1057500098F80800C82805D1C4F85890C4F85C909F
:10576000C4F8609098F80800401E88F80800A16D01
:1057700001EB0B00A065E16D3144E165226E2A4426
:10578000226698F808307BB93B4690FBF3F0A08383
:1057900091FBF7F0E08392FBF7F02084204840680B
:1057A0008047642088F8090098F80A00002831D062
:1057B00088F804A098F80A00C82805D1C4F86090B9
:1057C000C4F86490C4F8689098F80A00401E88F8FD
:1057D0000A00B4F93010206E08442066B4F9322073
:1057E000616E11446166B4F93430A26E1A44A26647
:1057F00098F80A30002B0DD13B4690FBF3F024F8CB
:10580000440F91FBF7F0608092FBF7F0A080044812
:1058100040688047BDE8FF9F14000020100400206E
:105820003C010020FEE700002DE9F0413A4F386DC1
:10583000FEF78DF90646D7F8A800FEF788F904466A
:10584000D7F8000180F00040FEF781F933490023CA
:10585000DFF8CC80B1F90410324D32294CDDD7F895
:1058600064C1C5F80CC098F80C10474621B33A7BC8
:105870002D49012A03D03A7B022A10D01CE00122D4
:105880004A700CF5967CC5F80CC08A78521CD2B2CE
:105890008A70322A10D902223A738B700CE08A780F
:1058A0006FF03104521CD2B28A70322A04D900241B
:1058B0008B7003223A738B604FF46172614694459A
:1058C00001DD114602E0002900DA00218A1904EB0B
:1058D000000C9444121B121A6A61C5E9031C891B4F
:1058E0000A1B02442144081AC5E90620387B032814
:1058F00008D16B61AB6105E0EB61AB616B612B6162
:10590000FFF750FE98F8040018B1A868BDE8F04110
:1059100000476868FAE7000080050020BC0100200D
:105920001004002018010020A40100204FF0804046
:105930000021818601878187A0F840107047704759
:105940007047000010B501218AB0084600F0FAFD4A
:105950000121080300F0F6FD1822E0212E48FFF790
:10596000F3FB2E4C102202212046FFF7EDFB102204
:1059700004212046FFF7E8FB29490120C1F88401F2
:105980000020ADF800004FF48271ADF802106115EF
:10599000ADF80800ADF80A101021ADF80C10ADF804
:1059A0000400ADF80600ADF80E0007201D4CADF860
:1059B00010006946204601F080F80121204601F0E0
:1059C00067F819491E20052281F85A0017A0D0E96E
:1059D0000010CDE9051005A9302001F0D5F8052209
:1059E00007A9102001F0A0F8002007A90A5CC22A2C
:1059F00003D1401CC0B20528F8D3052802D00020EE
:105A00000AB010BD3220FFF77EF900F059F800F01F
:105A100011F80120F4E7000000080140000C0140EB
:105A20000080214200300140A8000020C2C2C2C252
:105A3000C200000010B5064C0020C4F888010F21F8
:105A4000202004F5C47401F0BDF80120206010BDD1
:105A5000008021422DE9F041174D06466869002378
:105A60001A46194605F0C2F9072001F07BF80446F2
:105A7000400619D5114F0020C7F888011E22314673
:105A8000612007F5C47701F04FF82146272001F087
:105A900099F801203860686900231A46194605F014
:105AA00071FA4020BDE8F081686900231A46194662
:105AB00005F068FA0020F5E710040020008021427C
:105AC00010B5174C0020C4F88801052215492A207A
:105AD00004F5C47401F058F812490522491F30201A
:105AE00001F052F80321232001F06CF81E2131202F
:105AF00001F068F80021212001F064F809485538C8
:105B000090F85A10252001F05DF80E21262001F0B2
:105B100059F80021242001F055F80120206010BD23
:105B200000802142FD00002010B5084C0020C4F880
:105B300088010E21202004F5C47401F043F80120EF
:105B40002060BDE8104004F0A7BF000000802142A3
:105B500070B5174D0646686900231A46194605F0C8
:105B600045F9FFF7E1FF134C0020C4F888011E221D
:105B70003146A02004F5C47401F006F8012020602D
:105B8000072000F0EFFF04468006F9D5FF21E12051
:105B900001F018F82146272001F014F8FFF74AFF1A
:105BA000686900231A46194605F0ECF9202070BDFB
:105BB000100400200080214200204FF0E021431E0D
:105BC000C1F880315A0DC1F88421C1F88032C1F882
:105BD0008422014600F1E02282F80014401C0B28C8
:105BE000F8D3704730B50F23C27801780125F2B1A0
:105BF000144A126801F1E02102F4E062C2F5E062A9
:105C0000120AC2F10404D3404278A24084781C40B6
:105C10001443220181F80024007800F01F018D4018
:105C20004009800000F1E020C0F8005130BD01F0D3
:105C30001F0085404809800000F1E020C0F8805135
:105C400030BD00000CED00E0024908430249086045
:105C5000704700000000FA050CED00E0024A114018
:105C6000014302480160704780FFFF1F08ED00E01C
:105C700070B52F4D296808784C78420606D000F0A0
:105C80007F00012828D002282BD035E0092C06D02F
:105C9000052C07D0032C0ED0012C14D02CE001F0E1
:105CA000EBFB28E0C8787F282ED8887860BB8888EE
:105CB00050BB887A27E0C87801281DD18888D8B9D8
:105CC00001F0F6FB17E0C878012815D1888898B94B
:105CD000487A80060AD40FE00B2C0DD101F03EFC6F
:105CE00009E0012C02D0032C03D005E001F0C6FA34
:105CF00001E001F0EFFB58B10E49204609684969FF
:105D00008847032802D018B108200DE009200BE0D5
:105D1000094A062000211268084B120403EBD23214
:105D20005160074A302111802968087270BD000057
:105D30004003002044030020505C0040006000400D
:105D40005003002010B50F4C2068007A022811D0B3
:105D500004280FD0032804D0052802D0072805D036
:105D600008E0FEF7AFFE2068007A04E0064800680D
:105D7000C0688047082021680872BDE8104000F024
:105D800017B800004003002044030020064B521CBB
:105D9000520803EB410105D031F8043B20F8023BE7
:105DA000521EF9D1704700000060004070470000AB
:105DB0000C4810B590F82C10002001F0A1F80A480A
:105DC0000068007A082802D0092809D006E00749AF
:105DD0004FF480500880064910200880002010BD34
:105DE000012010BDB0020020400300204E0300201F
:105DF0005003002010B5012001F0E8FF0648012102
:105E000001600021054A0160031D19604FF4E05153
:105E100011800160002010BD405C00404C03002058
:105E20000260C160416081600020704770B500244D
:105E300083680FE0C56806685B1C35449D4200D846
:105E4000C36845689D4207D011F8015B86683570CC
:105E50008360641C9442EDD3204670BD30B50023AE
:105E60000DE04468651C45602478CC54C46805681E
:105E70002C4445685B1CAC4201D8C468446044684B
:105E80008568AC4204D0934202D204689C42E8D8B0
:105E9000184630BD10B504464FF0FF31FDF7B5FC94
:105EA0000849A1EB64042146FDF73FFC2146FDF7BC
:105EB0003CFC4FF07F51FDF735FC2146BDE810401A
:105EC000FDF733BCDF59375F2DE9FF5FEC4E044629
:105ED0003046776AD0E90A5017F0FF4F05D115F028
:105EE000FF4F02D110F0FF4F7DD00146FDF71DFCA2
:105EF000804629460846FDF718FC054639460846FF
:105F0000FDF713FC2946FDF7B8FB4146FDF7B5FB4D
:105F1000FFF7C0FF05462946706AFDF706FC81467B
:105F20002946B06AFDF701FC80462946F06AFDF774
:105F3000FCFBA16807462068FDF7F7FBE168054612
:105F40006068FDF7F2FB2946FDF7E9FB0121FDF74B
:105F50005CFC0090E168A068FDF7E7FB616805461E
:105F60002068FDF7E2FB2946FDF787FB0121FDF7DD
:105F70004CFC0190A168A068FDF7D7FB616805465D
:105F80006068FDF7D2FB2946FDF777FB0121FDF79D
:105F90003CFC4FF07E51FDF7C5FB0290019938465D
:105FA000FDF7C3FB029905464046FDF7BEFB2946B7
:105FB000FDF7B5FB029982464846FDF7B6FB00990E
:105FC00005463846FDF7B1FB2946FDF7A8FB0099C9
:105FD00002904046FDF7A9FB019905464846FDF7AA
:105FE000A4FB294600E09BE0FDF799FBDFF89482D3
:105FF000009041465046FDF798FB4146FDF795FB62
:106000000121FDF702FCA04D6968FDF736FB07464C
:10601000686041460298FDF788FB4146FDF785FB25
:106020000121FDF7F2FBA968FDF727FB8346A86075
:1060300041460098FDF779FB4146FDF776FB0121CB
:10604000FDF7E3FBE968FDF718FBE86001903846CF
:10605000FDF7AAFD804689468C495046FDF765FB51
:10606000FDF7A2FD05460F46F06CFDF79DFD884A41
:10607000884BFDF77DFC0022874BFDF7EBFC3B4690
:106080002A46FDF7CEFB42464B46FDF7CAFBFDF71D
:106090009EFD03905846FDF787FD814688467B4963
:1060A0000298FDF742FBFDF77FFD05460F46306D78
:1060B000FDF77AFD764A774BFDF75AFC0022764BC6
:1060C000FDF7C8FC2A463B46FDF7ABFB4A46434674
:1060D000FDF7A7FBFDF77BFD82460198FDF764FD08
:1060E0000746884669490098FDF71FFBFDF75CFDF0
:1060F00005468946706DFDF757FD654A654BFDF70E
:1061000037FC0022644BFDF7A5FC4B462A46FDF701
:1061100088FB43463A46FDF784FBFDF758FD804671
:10612000584D03982946FDF700FB81462946504605
:10613000FDF7FBFA824629464046FDF7F6FA074688
:106140002068009060680190A0680290E068039069
:1061500003983946FDF7E9FA064602985146FDF7DD
:10616000E4FA05460198494680F00040FDF7DDFA63
:106170002946FDF7D4FA3146FDF7D1FA2168FDF73B
:106180007CFA206002983946FDF7CFFA064603985C
:106190005146FDF7CAFA054600984946FDF7C5FA8B
:1061A0002946FDF7BCFA3146FDF767FA6168FDF74D
:1061B00064FA606001983946FDF7B7FA0646009820
:1061C0005146FDF7B2FA054603984946FDF7ADFA88
:1061D0002946FDF752FA3146FDF7A1FAA168FDF70D
:1061E0004CFAA06000983946FDF79FFA06460298DF
:1061F0004946FDF79AFA054601985146FDF795FA8A
:106200002946FDF78CFA3146FDF737FAE168FDF7CC
:1062100034FAE060E168E068FDF787FAA1680746B4
:10622000A068FDF782FA616806466068FDF77DFAAE
:10623000216805462068FDF778FA2946FDF71DFA22
:106240003146FDF71AFA3946FDF717FAFFF722FE35
:10625000054620682946FDF768FA206060682946EF
:10626000FDF763FA6060A0682946FDF75EFAA0605A
:10627000E0682946FDF759FAE060BDE8FF9F00009D
:10628000140000206F12833ACC010020CDCCCC3E0C
:10629000182D4454FB210940008066402DE9FE4F33
:1062A0000D46016804460068FDF73FFA01906168F9
:1062B0006068FDF73AFA0090A168A068FDF735FA2A
:1062C000E1688246E068FDF730FA8146DDE90010BA
:1062D000FDF7D3F95146FDF722FA4946FDF71FFABB
:1062E000A16806466068FDF720FAE1680746206865
:1062F000FDF71BFA3946FDF7C0F90121FDF785FAD4
:10630000A16807462068FDF710FAE16880466068DA
:10631000FDF70BFA4146FDF702FA0121FDF775FA88
:10632000E1688346A068FDF700FA6168804620684E
:10633000FDF7FBF94146FDF7A0F90121FDF765FAEC
:106340000290DDE90010FDF7EAF95146FDF7E7F9A3
:106350004946FDF792F98146584602F0C7F9686050
:106360004946029802F054FAA8603146384602F0D5
:106370004FFA0446E8606868FDF716FC544E554B2A
:106380003246FDF767FB544F00223B46FDF7F0FA1B
:10639000FDF71DFC2861A868FDF706FCDFF83C81CD
:1063A00032464346FDF756FB00223B46FDF7E0FA36
:1063B000FDF70DFC68612046FDF7F6FB32464346CB
:1063C000FDF748FB00223B46FDF7D2FAFDF7FFFB45
:1063D000A8614348417A434D434C002629B1417A94
:1063E000012958D0417A491E41724946E86AFDF7B1
:1063F0009CF98046A86A0299FDF797F90746594625
:10640000686AFDF792F93946FDF737F94146FDF71D
:1064100034F96168FDF783F9354D01462060334A50
:106420002869FFF705F920602861297802292DD312
:106430002E70304902F0B0FEDFF8BC904946FDF7FF
:1064400074F92E49FDF771F9E168FDF716F92C4949
:10645000FDF76BF9E060804626692A4816F0FF4F89
:1064600033D080682849FDF760F907462749304650
:10647000FDF75BF93946FDF700F906464946404607
:10648000FDF753F93146FDF7F8F820612878401CF4
:106490002870BDE8FE8F46724946E86AFDF745F967
:1064A0008046A86A0299FDF740F907465946686A8E
:1064B000FDF73BF93946FDF7E0F84146FDF7DDF819
:1064C00060601348406880478FE78668D6E7000021
:1064D000182D4454FB2109C000806640FB2109406F
:1064E0001004002014000020FC030020CBA1C53EB6
:1064F000CC0100200AD7233D6F12833BC3F51C411A
:1065000052B87E3F8C000020D0CC4C3D3333733FDB
:106510003C010020044A0029D16901D0014300E078
:106520008143D1617047000000100240044A0029F5
:10653000116901D0014300E08143116170470000FF
:1065400000100240044A0029916901D0014300E093
:10655000814391617047000000100240044A002905
:10656000D16801D0014300E08143D1607047000051
:10657000001002400C48016841F0010101604168CF
:106580000A4A114041600168094A114001600168EE
:1065900021F480210160416821F4FE0141604FF443
:1065A0001F01816070470000001002400000FFF8EA
:1065B000FFFFF6FE0149C1F8D800704700004242D3
:1065C0002DE9F047DFF87C8108F13200D8F80C1093
:1065D0008847012700265C4D5C4C4FF47A724028B6
:1065E0000BD02889401C80B2288190427ED320792C
:1065F00001287CD027712E81A2E0B8F8320040BA81
:106600006880B8F8340040BA2880B8F8360040BA3C
:10661000E880607B0228B8F8380040BA08D0A0F5BE
:106620007A70A880B5F9041091420ADD11460BE09A
:1066300000B2B5F90410A0F57A708842F2DD6673F5
:10664000F0E7002900DA0021A98098F83A004FF01D
:10665000C802C30702D0237903B12272830702D58F
:10666000237903B1A272C20602D5227902B1E77280
:10667000420602D5227902B12773020601D5E771DD
:106680002771C146420717D5DFF8C480DFF8C4C0C0
:10669000D8F81020624501D382F000422E4B9A4276
:1066A0000ADAD8F81420624501D382F000429A42F7
:1066B00002DA322900DA2671CA4680061DD5207911
:1066C000D8B96179254801291FD02549DFF8948080
:1066D00081460969C160D8F86401FDF72AFAC9F852
:1066E0001400C9F81000C8F8186101E026E023E0A2
:1066F000C8F83061C8F8346167712079C0B19AF880
:106700003B00C10704D0AF7203E06671C660F4E7D6
:10671000AE72810701D5EF7200E0EE72410701D53C
:106720002F7300E02E73000701D56F7300E06E73C6
:106730002E810120BDE8F087E7715CE7401C2881CD
:106740000020F7E7A8000020BC0100201004002072
:10675000EC0100200000808000002041E8060020BD
:10676000FC030020800500202DE9F0474F4C5048E5
:106770000026A6760179012701B9A776C17819B15B
:10678000A17E41F00201A176807918B1A07E40F08F
:106790000400A0764748484DC0682946FCF7C5FF6D
:1067A0008146FDF7EDF9E076000A207743486677E9
:1067B000817A012900D16777C17A012903D1617FEC
:1067C00041F002016177017B012903D1617F41F032
:1067D00004016177407B012803D1607F40F008000D
:1067E0006077374FA84629463869FCF79EFFFDF7CA
:1067F000AEF9064641467869FCF797FFFDF7A7F921
:1068000005464146B869FCF790FFFDF7A0F904F88A
:10681000146F310A6170A570290AE1702071000AB5
:106820006071284841460069FCF77FFFFDF78FF94A
:10683000254E05463069FDF78AF901462348C268AE
:10684000A572280AE072280C2073280E6073A173C9
:10685000080AE073080C2074080E6074A274100A11
:10686000E074100C2075100E60754846FDF76FF946
:1068700005461748D0F82C01FDF769F9A575290AD6
:10688000E1752076000A60764146F068FCF74DFF1E
:10689000FDF75DF9A076000AE0765520607754F8A0
:1068A000041CBDE8F047014814300847A800002048
:1068B00010040020040100200000C842BC01002098
:1068C000EC010020FC030020E80600201801002055
:1068D000800500202DE9F041214C072800D02070D0
:1068E00020781F4D0626052204271E4906280BD2B4
:1068F000DFE800F0030C11161E27686810B1227043
:10690000BDE8F08100F030F82670F9E700F02CF8CF
:106910002770012022E00220607003202070EFE742
:106920006078401E607060780028E9D12770E7E742
:10693000086880B240F01000086022700A20607081
:10694000DEE76078401E607060780028D8D1086863
:1069500080B220F010000860267000206860CFE749
:1069600030030020405C004010B5064C206880B227
:1069700020F004002060FEF771FE4FF43F402060DD
:1069800010BD0000405C00402DE9F04789460446F8
:1069900016469A46406A1946FCF7C7FEE168FCF7BE
:1069A0006CFEE0602169FDF739F901D225690BE041
:1069B0002069E16880F00040FDF730F903D22069DA
:1069C00080F0004500E0E568E560606A22680746FF
:1069D00001461046FCF7A9FE8046606129466068C2
:1069E000FCF7A3FE0546A061B9F1000F0DD0316898
:1069F000A06AFCF794FEA168FCF797FE5146FCF7ED
:106A0000C6FEE0613068A0620BE03846A16AFCF780
:106A100086FEA168FCF789FE5146FCF7B8FEA76226
:106A2000E06129464046FCF728FEE169FCF725FEB7
:106A30002062BDE8F087000070B5124800680528A4
:106A40001FD1114D287800281BD16868411C69604E
:106A5000052816D10020686040210C4801F0D6FAC4
:106A60000404240C0DD02246C021084801F0E0FAAD
:106A70002146012000F09EFA012000F0C1FA012019
:106A8000287070BD28030020480200202411002037
:106A90000029018802D041F0400101E021F04001CD
:106AA000018070470246002012890A4200D001206E
:106AB0007047808970478181704730B502884C8863
:106AC00002F441530A88CD8822438C882C43224308
:106AD0000C8922434C8922438C892243CC8922434E
:106AE0001A430280828B22F400628283098A018227
:106AF00030BD000070B50B4C054602212046FFF763
:106B0000D1FF0028F9D029462046FFF7D4FF012104
:106B10002046FFF7C7FF0028F9D02046FFF7C9FF3E
:106B2000C0B270BD003001402DE9F0410C4F0E465F
:106B300000211546C7F88411FFF7DCFF80460024CA
:106B400005E0FF20FFF7D6FF3055641CE4B2AC42ED
:106B5000F7D30120C7F884014046BDE8F08100006A
:106B60000080214210B5074C0021C4F8841104F5BF
:106B7000C274FFF7BFFFFF20FFF7BCFF01212160B8
:106B800010BD0000008021422DE9F0410C4F0D4660
:106B900000211646C7F88411FFF7ACFF8046002499
:106BA00005E015F8010BFFF7A5FF641CE4B2B44241
:106BB000F7D30120C7F884014046BDE8F08100000A
:106BC0000080214270B50D46084C01460020C4F8F3
:106BD0008401084604F5C274FFF78CFF0646284678
:106BE000FFF788FF01202060304670BD0080214201
:106BF00070B50E46144605461146FDF70FF809D24A
:106C000021463046FCF78BFD064621462846FCF718
:106C100086FD0EE084F000402946FCF7FFFF0DD210
:106C200021463046FCF77BFD064621462846FCF708
:106C300024FD3146BDE87040FCF7A9BD002070BDC1
:106C400010B5194C01212069FDF7B8FE02216069D9
:106C5000FDF7B4FE0321A069FDF7B0FE134C04213B
:106C6000A068FDF7ABFE124805210069FDF7A6FEFE
:106C700010480721D0F85801FDF7A0FE082120692F
:106C8000FDF79CFE09212069FDF798FE0A21E068C6
:106C9000FDF794FE0A20FDF751FE0146BDE81040C5
:106CA000054801F0BBB90000EC0100208C00002079
:106CB000FC03002080050020B40300202DE9FF41E3
:106CC0003C4D286900231A46194604F08FF83A4CC7
:106CD00060688047A87810B13848406880472869C4
:106CE00000231A46194604F04DF96FF00B0841468F
:106CF0002069FCF78AFDFCF757FF314E314F05251F
:106D00000097CDE90156304B304A0395FEF7A2FBC0
:106D1000FCF75DFF606241466069FCF776FDFCF7B9
:106D200043FF0097CDE90156274B284A28332832E4
:106D30000395FEF78FFBFCF74AFFA0624146A0696E
:106D4000FCF763FDFCF730FF0097CDE901561E4BC1
:106D50001E4A503350320395FEF77CFBFCF737FF99
:106D60001B4EE0623146A06BFCF7DFFC1A4D194F59
:106D700001463A466869FEF75BFCE0643146E06B29
:106D8000FCF7D3FC01463A46A869FEF751FC2065A2
:106D90003146206CFCF7C9FC01463A46E869FEF72B
:106DA00047FC6065E16C6961216DC5E90610BDE8CD
:106DB000FF81000010040020140000208C0000203F
:106DC0007801002050010020A004002028040020A9
:106DD00000007A3DCBA1C53ECC0100201B4810B578
:106DE000006880471A4C90B11A4800688047E8B1A3
:106DF000194CA078002828D018480068804700283F
:106E000023D1A070BDE8104015A001F041BA18A030
:106E100001F03EFAC820FDF776FFD4F8A00118B1C2
:106E20000020C4F8A001F5E70120FAE713A001F063
:106E30002FFAC820FDF767FFD4F8900118B10020A1
:106E4000C4F89001F5E70120FAE710BDA800002082
:106E50000000214214000020100400208C000020BB
:106E6000424D50323830204572726F720A00000075
:106E70006E5246204572726F720A00004D505520C6
:106E80004572726F720A0000024920F00700086024
:106E900070470000505C0040F0B50E490E4E48F6B9
:106EA0008F770D78002148F2800C0BE0CAB206EB18
:106EB0008203D3F8004C3C40144344EA0C04C3F86A
:106EC000004C491CA942F1D3044940F080000860FD
:106ED000F0BD000000030020005000404C5C00406A
:106EE000054A21F00101126892B202EBC000034A88
:106EF00002EB400081607047505C00400060004041
:106F00000D4A12683E2992B202EBC0000B4A02EB16
:106F1000400209D94809C90601D1401E80B24FF488
:106F2000004141EA802004E04808C90700D0401C25
:106F30008002106070470000505C00400C60004010
:106F400082000A480244D2F8000C4BF68F731840B6
:106F5000CB0401D580F48050890401D580F4005021
:106F600048F280010843C2F8000C7047005000400E
:106F7000810007480844D0F8001C4BF68F7211407E
:106F800081F4405148F280021143C0F8001C704760
:106F900000500040054A21F00101126892B202EB54
:106FA000C000034A42F8101070470000505C0040D7
:106FB00000600040044A126892B202EBC000034A2B
:106FC00002EB400041607047505C004000600040B0
:106FD00082000A480244D2F8000C48F6BF731840F9
:106FE000CB0601D580F01000890601D580F0200085
:106FF00048F280010843C2F8000C7047005000407E
:10700000810007480844D0F8001C48F6BF721140C0
:1070100081F0300148F280021143C0F8001C704733
:1070200000500040820005481044D0F8002C48F67B
:107030008F131A400A43C0F8002C704700500040DC
:107040000CB50022264800920192016841F480317B
:1070500001604FF4A063016801F4003101910099CF
:10706000491C0091019911B900999942F3D1016825
:10707000890333D5012101911A490A6842F01002AF
:107080000A600A6822F003020A600A6842F00202FB
:107090000A604168416041684160416841F4806133
:1070A0004160416821F47C114160416841F4F8116C
:1070B0004160016841F08071016001688901FCD57F
:1070C000416821F003014160416841F002014160E3
:1070D0004168C1F381010229FAD10CBD01920CBDB6
:1070E000001002400020024002490870FCF718FA24
:1070F000FEE70000FC4F002038B517494FF4A064AC
:107100002246A1F12000FEF78BFE14492246A1F58C
:10711000A260FEF785FE01210420FFF713FA4FF469
:107120000040ADF8000003208DF8020010208DF81B
:10713000030069460A48FDF78DFF4FF4802420467E
:10714000FDF728FE074908200C604871012088716E
:107150000846FDF725FE38BD24070020240C00203A
:10716000000801401C02002010B50020FFF722FAA1
:107170000121BDE81040C805FFF7CCB970B516482D
:107180000068174D0004C10B14480144098989B2F5
:1071900000EB41042868017A09290FD02178017099
:1071A00061784170A088FDF7A0F82968488020899F
:1071B000FDF79BF829688880A089C880286801218C
:1071C0000172C08828B1FDF7CFFCBDE87040FEF722
:1071D000EFBDFEF74DFDF8E7505C00400060004059
:1071E0004003002070B515460E460446FEF7D6F85B
:1071F00000281BD02046FEF7B5F8FEF701F9B0B124
:107200003046FEF7AFF8FEF7FBF8FEF7C7F8641C50
:10721000E0B2FEF7A7F8FEF7F3F8FEF755F80446DC
:10722000FEF73CF8FEF7D6F82C70012070BDFEF793
:10723000D1F8002070BD70B514460D460346FEF728
:10724000ADF8002815D01846FEF78CF8FEF7D8F8F0
:1072500080B12846FEF786F8FEF7D2F82046FEF702
:1072600081F8FEF7CDF8FEF7B5F80520FDF74BFDE8
:10727000012070BDFEF7AEF8002070BD2DE9F04191
:1072800038480068017811F07F0102D0022905D04A
:1072900066E0417A01F0DF0141724EE04188002949
:1072A0005ED10179F1BB4179304D21F080040A06AD
:1072B00005EB84022C4BD2F8002C03D5C2F301124B
:1072C000120102E0C2F3013212031E782346A642E5
:1072D00046D93AB3807A28B308064FEA84000ED51F
:1072E0002844D0F8000CC0F30110012821D1184621
:1072F000FDF7DCF920463021FFF76AFE19E0461958
:10730000D6F8000CC0F30130012812D14BF68F776C
:1073100048F28008A4B11846FDF7B4F9D6F8000C7D
:10732000384000E01CE080F4405040EA0800C6F815
:10733000000C0F480068406980470020BDE8F081DC
:107340000C4890F82C100020FFF7DAFDD5F8000C5F
:10735000384080F4405040EA0800C5F8000CE8E7E7
:107360000220EBE740030020000300200050004013
:1073700048030020B002002010B5074C30B1074888
:1073800000680068804720680A3010BD216801202D
:107390000882002010BD00004003002048030020A8
:1073A000054A13685A8A10B10868104470478888E3
:1073B000801A1882002070474003002010B5074C47
:1073C00030B1074800688068804720680C3010BDE5
:1073D000216801200882002010BD00004003002029
:1073E00048030020204910B5096860B11F480022F9
:1073F00002800A7853060AD002F07F02012A16D0D2
:10740000022A16D001E002200882002010BD497A2D
:107410008A06027802D542F0020201E002F0FD0283
:1074200049060270D1B211D401F0FE0110E00F48FC
:1074300010BD49790A070B060D4901EB9261D1F89D
:10744000001C07D5C1F3011106E0017841F00101EC
:10745000017003E0C1F301310129F6D0054800684D
:1074600000698047E3E70000400300203A03002062
:1074700000500040480300200A4810B500680A4A3E
:10748000C1785278914203D882780AB982880AB1C9
:10749000022010BD817205480068406880470020C6
:1074A00010BD00004003002000030020480300201E
:1074B000064810B50068417A41F020014172044845
:1074C0000068C0698047002010BD00004003002014
:1074D0004803002070B51D481D4D0268517921F008
:1074E000800005EB80000B06D0F8003C21F0800402
:1074F00003D5C3F301131B0102E0C3F301331B03E4
:10750000144D2D78A54210D9548874B96BB1927A74
:107510005AB10906D0F8001C48F2800207D548F697
:10752000BF73194081F0100106E0022070BD4BF6D8
:107530008F73194081F480511143C0F8001C064834
:10754000006880698047002070BD00004003002073
:1075500000500040000300204803002010B50E4CEE
:107560000E4A20681268C178926940799047216874
:107570008A7A22B118B9087908B9887808B1022046
:1075800010BD07480068C068804720684179C17213
:10759000C1780173002010BD400300204403002087
:1075A00048030020F8B52A4B002000901968294CA8
:1075B000294A89B204EB8005D5F8005CADB242F8E7
:1075C0002050401C0828F5D341F48060186040F03A
:1075D0000100186020F001051D601D49091D0868A3
:1075E0004005FCD54FF6FF300860002052F82060BF
:1075F00004EB8007B6B2C7F8006C401C0828F5D32E
:1076000045F008001860186880B240F00400186067
:10761000124A10680090106820F0030040F001004A
:1076200010600F48046844F0040404600C68E4042B
:1076300009D54EF6FF740C60196889B221F0080173
:10764000196000991160016821F004010160F8BD22
:10765000405C004000500040A41100200070004039
:1076600010ED00E00F4810B5016841F00101016024
:1076700041680D4A1140416001680C4A11400160A7
:10768000016821F480210160416821F4FE0141601C
:107690004FF41F018160FFF7D3FC05494FF00060F4
:1076A000086010BD001002400000FFF8FFFFF6FE6A
:1076B00008ED00E003480188C90702D04FF6FE71CB
:1076C00001807047100400400029018802D041F079
:1076D000010101E021F00101018070474B4910B523
:1076E000884202D10121C41486E0B0F1804F09D054
:1076F000474988420DD101210220FEF717FF0021E2
:10770000022064E001210846FEF710FF002101205D
:107710005DE04049884206D101210420FEF706FFC2
:107720000021042053E03C49884206D10121082071
:10773000FEF7FCFE0021082049E03849884206D1C6
:1077400001211020FEF7F2FE002110203FE0344915
:10775000884206D101212020FEF7E8FE00212020EA
:1077600035E03049884202D10121441444E02E49D9
:10777000884202D10121CC043EE02C49884202D14A
:1077800001210C0538E02A49884202D101214C052B
:1077900032E02849884206D101214020FEF7C6FE8A
:1077A0000021402013E02449884206D10121802095
:1077B000FEF7BCFE0021802009E0204988420AD162
:1077C000841501212046FEF7B1FE00212046BDE8C8
:1077D0001040FEF7ABBE1A49884202D101210C04C9
:1077E0000AE01849884202D101214C0404E01649FC
:1077F00088420AD101218C042046FEF7AFFE2046C4
:10780000BDE810400021FEF7A9BE10BD002C0140CC
:107810000004004000080040000C00400010004040
:107820000014004000340140004C01400050014071
:107830000054014000180040001C0040002000409F
:1078400000400140004401400048014030B5028C36
:1078500022F001020284028C8388048B22F002024F
:1078600024F073050C882C430D8915434A882A435C
:10787000114DA8420BD0114DA84208D0104DA8427E
:1078800005D0104DA84202D00F4DA8420DD122F0D4
:1078900008054A8923F440732A4322F004058A88A4
:1078A0002A438D891D43CB892B4383800483C98858
:1078B0008186028430BD0000002C0140003401406C
:1078C000004001400044014000480140028B22F08A
:1078D00008020A430283704770B5028C22F010023E
:1078E0000284028C8388048B0D8824F4E6464FF6CC
:1078F000FF7404EA052535430E8922F0200204EACC
:10790000061616434A8804EA02123243104EB04269
:1079100002D0104EB04215D122F080064A8923F4DD
:10792000406304EA0212324322F040068A8804EAE5
:10793000021232438E8904EA86061E43CB8904EA8A
:107940008303334383800583C9880187028470BD24
:10795000002C014000340140028B4FF6FF7322F4EB
:10796000006203EA012111430183704770B5028C64
:1079700022F480720284028C8388848B0D8824F028
:10798000730425430E894FF6FF7422F4007204EA53
:10799000062616434A8804EA02223243104EB042B9
:1079A00002D0104EB04215D122F400664A8923F469
:1079B000405304EA0222324322F480668A8804EAB1
:1079C000022232438E8904EA06161E43CB8904EA5A
:1079D0000313334383808583C9888187028470BD04
:1079E000002C014000340140828B22F008020A433F
:1079F0008283704770B5028C22F480520284058C19
:107A00008288838B0C8823F4E6464FF6FF7303EAE3
:107A10000424344325F400560D8903EA0535354323
:107A20004E8803EA06362E43094DA84202D0094D7E
:107A3000A84205D122F480458A8903EA82122A43AA
:107A400082808483C988A0F84010068470BD00003D
:107A5000002C014000340140828B4FF6FF7322F46A
:107A6000006203EA012111438183704700210180F4
:107A700041808180C180018141818181C1817047C4
:107A800030B502881B4C1C4DA0420DD0A8420BD033
:107A9000B0F1804F08D0194B984205D0184B98424E
:107AA00002D0184B984203D122F070034A881A433F
:107AB000154B984206D0154B984203D022F44073E0
:107AC000CA881A4302808A8882850A880285A04271
:107AD0000AD0A84208D00E4A904205D00D4A9042E2
:107AE00002D00D4A904201D1097A0186012181829A
:107AF00030BD0000002C0140003401400004004073
:107B000000080040000C004000100040001400403D
:107B1000004001400044014000480140124910B5B6
:107B20000878124A002338B1012804D1507800287F
:107B300001D153710B7010BD50790124012810D070
:107B400050780128F7D15471094802690948C26088
:107B5000094A42610261A0F5B470C0F81831C0F85A
:107B600034310C7010BD0000A4010020100400206E
:107B7000FC030020E80600200000964308B503F04F
:107B8000D7FA054C00900221684602F09DFF20685C
:107B90008047FCF7AFFDF6E7EC01002008B503F0E5
:107BA000C7FA0A4C00900A21684602F08DFFFEF7E2
:107BB00007FD0128F7D1FEF7D7FDD4F8900118B1E1
:107BC0000020C4F89001EEE70120FAE7000021420E
:107BD0007CB502F021FF00240620CDE900044FF41B
:107BE000167523462A4617A1184803F075FA052092
:107BF000CDE9000400232A4615A1174803F06CFACA
:107C00000420CDE9000400234FF4C87213A11548E5
:107C100003F062FA0320CDE900040023642212A1DC
:107C2000134803F059FA03F07DF8014611A000F063
:107C30002FFB1548006802F073FFBDE87C4002F09E
:107C4000F9BE00004D5F4354524C00007D7B00089C
:107C50004D5F5243000000009D7B00084D5F55536F
:107C600042000000ED7C00084D5F535953000000B6
:107C70008D7C00084672656520686561703A2564F0
:107C80002062797465730A001802002008B503F0B9
:107C90004FFA134D114E134CDFF84C806F150090C6
:107CA0006421684602F010FF01F072FB60688047B3
:107CB000F07928B908212846FDF75AFA0028EFD1B3
:107CC00008212846FDF754FA0028F9D039464046E5
:107CD000FDF755FAA16801208847E1E7100400206C
:107CE000000C014004010020000801408AB003F0AC
:107CF0001FFA164C0890322108A802F0E5FEFEF7A4
:107D00009FFF1E21684600F04FF910F0FF0FF2D0E0
:107D10009DF800007228EED19DF801006528EAD197
:107D20009DF802006228E6D19DF803006F28E2D199
:107D30009DF804006F28DED19DF805007428DAD183
:107D400020790128D7D1FDF73DFCD4E710040020AD
:107D5000174910B588420AD101218C032046FEF74D
:107D6000FDFB2046BDE810400021FEF7F7BB11499E
:107D7000884202D101214C0410E00F49884202D10F
:107D800001218C040AE00D49884202D10121CC0472
:107D900004E00B4988420AD101210C052046FEF778
:107DA000C5FB2046BDE810400021FEF7BFBB10BD5B
:107DB000003801400044004000480040004C0040B2
:107DC000005000404FF48020FCF7E4BF044A002834
:107DD0004FF40041104601D0FDF7D3B9FDF7CFB9FC
:107DE0000008014010B5FFF787F9FFF7BDF900F073
:107DF00019F8BDE8104000F001B800000649054838
:107E0000022208600272064A0448C1E901020068C1
:107E100000470000C411002040030020B0020020F1
:107E20000403002038B514208DF8000002208DF8DE
:107E3000010000208DF8020001248DF803406846FF
:107E4000FDF7D0FE2A208DF800008DF8014068462D
:107E5000FDF7C8FE38BD00002DE9F0414B4D88B05C
:107E6000002428684A4E708070884A4F398808403C
:107E7000800507D54FF6FF5028603078401C3070E1
:107E8000FEF7DAFD708839880840000401D5FCF758
:107E900031FA708839884FF6FF380840400504D51C
:107EA000C5F800803C4840688047718838880140A8
:107EB000890402D54DF6FF71296071880140C8041C
:107EC00005D54EF6FF7028600020FEF703FD708890
:107ED0003988084000050BD53048007810B1FFF70D
:107EE00061FB02E00220FEF7F5FC4FF2FF70286014
:107EF000708839880840C00545D54FF6FF60286076
:107F00002248001D00684FF00003000437D5706858
:107F1000401C70607068032832D91C48001F01683B
:107F200009072DD4016889B2B1601D496A4601EB89
:107F30008407D7F8007CBFB242F82470641C082C78
:107F4000F5D3B46844F00104B460B468A4B204602A
:107F5000B46824F00104B460B468A4B20460286872
:107F60004005FCD5C5F80080002052F8204001EB08
:107F70008005A4B2C5F8004C401C0828F5D37360F6
:107F80000720FEF7A7FC08B0BDE8F081445C004084
:107F9000500200204C030020B00200202C030020DF
:107FA00000500040FFF758BF0A4601460148FDF760
:107FB00055BF0000040700200A4601460148FDF7AE
:107FC00035BF00000407002005490020086005496E
:107FD0004FF43F4008800249091F086000207047A5
:107FE000445C00404C03002070B500F07F060D4655
:107FF0003046FDF7D9F804463046FDF7C5F801468E
:1080000022462846FDF7C2FE204670BD0A460146BC
:108010000148FDF723BF0000140700200A4601466F
:108020000148FDF703BF000014070020FEE7000031
:10803000084B10B5521C520803EB410109D010F84F
:10804000013B521E10F8014B43EA042321F8043B84
:10805000F5D110BD00600040104A10B50021126833
:10806000212802D0202807D016E0107800F07F00E9
:10807000212811D10A4908E0107800F07F0021285A
:1080800000D10849084B2020187029B100209161C7
:1080900050828847002010BD022010BD4003002000
:1080A000C580000839820008940200200149FFF7CA
:1080B00077B90000A80200200149FFF771B900005C
:1080C000A002002008B1044870470449082009684C
:1080D0000882002070470000980200204003002022
:1080E00005490968C978042901D900207047034A65
:1080F00002EBC101FFF754B940030020E002002069
:1081000009B9012801D902207047002070470000FA
:1081100007490968097801F07F01212903D1022864
:1081200003D0222801D002207047002070470000B1
:1081300040030020334810B50068334A00218172A3
:10814000D2794272C1720846FEF79EFE4FF400716A
:108150000020FEF767FF10210020FEF739FF4021C5
:108160000020FEF7BDFE80210020FEF713FF002057
:10817000FCF7B0FA254890F82C100020FEF7C0FE5E
:108180000020FEF7F5FE00210120FEF74BFFC02185
:108190000120FEF7FFFE20210120FEF719FF00213C
:1081A0000120FEF7CDFE4FF4C0610220FEF73AFF3A
:1081B0004FF480710220FEF7EDFE00210220FEF751
:1081C000BFFE20210220FEF703FF00210320FEF75F
:1081D00029FF4FF488710320FEF782FE402103201F
:1081E000FEF78EFE4FF440510320FEF7A9FE00215A
:1081F0000320FEF7EDFE0020FEF74EFE04490120AD
:10820000086010BD4003002086B30008B0020020C3
:10821000280300200348807A002802D00249052064
:1082200008607047C4110020280300200149042081
:10823000086070472803002008B1044870470449CB
:10824000082009680882002070470000980200207A
:108250004003002003480178202901D1002101704A
:1082600070470000940200207047000010B5FCF732
:10827000B9FF0548002400688472FDF7BBFDFFF7D5
:10828000A3FE0248046010BD400300202803002024
:108290000FB4054B10B503A9044A029800F07CF90D
:1082A00010BC5DF814FB000001930008AC03002033
:1082B000490050EAC12018BF04204A0D18BF40F001
:1082C000010040F2FF72B2EB515F08BF40F00200C4
:1082D000012808BF052070474100080218BF04208C
:1082E0000A0E18BF40F001004FF07F4232EA010150
:1082F00008BF40F00200012808BF052070472DE9A3
:10830000F0414F1E00EBC7010446D1E900011546BC
:108310001E4637F006020DD02A463346FBF728FBEF
:108320007F1E04EBC703D3E90023FBF77AFA37F08B
:108330000602F1D1022F25D0042F13D0062F18BF2B
:10834000BDE8F0812A463346FBF712FBD4E90A2345
:10835000FBF767FA2A463346FBF70AFBD4E9082302
:10836000FBF75FFA2A463346FBF702FBD4E9062304
:10837000FBF757FA2A463346FBF7FAFAD4E9042307
:10838000FBF74FFA2A463346FBF7F2FAD4E9022309
:10839000FBF747FA2A463346FBF7EAFAD4E900230B
:1083A000BDE8F041FBF73DBA0022134610460149F3
:1083B000FBF750BB0000F03FFBF733BA0022134637
:1083C00010461146FBF746BB40F2013200204FF049
:1083D000E041FBF747BD0000024A00201107FBF710
:1083E00041BD000001FDFFFF0121FBF70EBAFBF7C5
:1083F00044B900210846FBF7CAB96FF05E010807CF
:10840000FBF703BA2DE9F04D0D4614464FF07F41BE
:10841000B1EB440F9EBF4FF0FF312960BDE8F08DF6
:108420004FF0004040EA0421C4F3C750783810F000
:108430001F024A4B4FEA601CC2F120067B44C4F382
:10844000C750A0F178004FEA601003EB800053F8AA
:108450002C3008BFD0E901C612D0D0F804C0934038
:108460002CFA06F73B4387680CFA02FC27FA06F859
:10847000C06807FA02F2F0404CEA080C42EA000633
:10848000A3FB0132ACFB01C0A6FB016101EB0C06B2
:108490008E4234BF4FF0010C4FF0000CC118614404
:1084A000BCF1000F02D0814202D903E0814201D227
:1084B000012000E00020104400F120024FEA921851
:1084C0008006CA0C40EA42304F03C5F80080FBF733
:1084D00030FB82463846FBF735FB6FF01201FBF7A5
:1084E00094F907463046FBF72DFB6FF02501FBF7AB
:1084F0008CF9834639465046FBF7BFF85946FBF7DF
:10850000BCF800F500666FF30B0651463046FBF7EA
:1085100006F93946FBF703F95946FBF703F9104909
:10852000FBF703F907460F493046FBF7FEF83946DB
:10853000FBF7A3F807460C493046FBF7F6F8394637
:10854000FBF79BF814F0004F08BFBDE8F08DC8F1B1
:10855000805180F000402960BDE8F08D503000006F
:10856000DB0FC92F22AAFD290000C92F02E008C88D
:10857000121F08C1002AFAD170477047002001E09D
:1085800001C1121F002AFBD1704700000149086099
:1085900070470000B00300202DE9FF4F89B09B46D3
:1085A0000446002506E025280BD05A460B99904733
:1085B000641C6D1C20780028F5D10DB02846BDE85C
:1085C000F08F0027B8460122474900E0074314F81E
:1085D000013F203B02FA03F00842F7D120782E2811
:1085E00019D114F8010F47F004072A280ED06FF0B4
:1085F0002F022078A0F1300109290CD808EB88015E
:1086000002EB410100EB0108641CF2E70A98641CCC
:1086100050F8048B0A9020780028CED0642808D027
:10862000692806D075281ED05A460B9990476D1CB4
:1086300058E00A994FF00A0901C90A91002802DAA4
:1086400040422D2102E0390504D52B218DF8201060
:10865000012103E0F90704D02021F7E78A4608AE9C
:108660000DE00021FAE70A994FF00A0901C90A91C1
:10867000F7E74946FBF7DCFA303106F8011D002820
:10868000F7D1ADEB060000F12009780701D44FF0D7
:108690000108C84502DDA8EB090000E00020804683
:1086A000002706E008A85A46C05D0B9990476D1C4C
:1086B0007F1C5745F6DB04E030205A460B99904763
:1086C0006D1CB8F10001A8F10108F5DC05E016F811
:1086D000010B5A460B9990476D1CB9F10001A9F1A5
:1086E0000109F4DC641C65E7092801002DE9F0416B
:1086F00004464FF00E4000EB4400B0F1506F2046AE
:1087000055D84FF0FC41B1EB440F1CD224F000408F
:108710004FF07E51FBF706F84FF0FF31FBF775F88D
:10872000054602F0A3F814F0004F1DBF2F4F304E46
:1087300080F000402F4F08BF2F4E4FF04041FAF716
:10874000F4FF044605E000273E460146FAF7EDFF38
:1087500005462A492846FAF7E8FF2949FAF78DFF26
:108760002946FAF7E2FF2749FAF787FF2946FAF781
:10877000DCFF2549FAF781FF2946FAF7D6FF23499E
:10878000FAF77BFF804629462046FAF7CEFF41469E
:10879000FAF7CBFF054631462046FAF76EFF294629
:1087A000FAF76BFF3946BDE8F041FAF766BF4FF0C4
:1087B000E441B1EB440F08D9FFF78EFD042808BF50
:1087C000FFF71BFE2046BDE8F0814FF07F41B1EB83
:1087D000440F03D2BDE8F041FFF706BE0120FFF7CA
:1087E000D5FEBDE8F041FFF704BE00000000C9BFA0
:1087F00022AAFDB90000C93F22AAFD3924FE1C3D72
:10880000C78AD83C1E67383D1B93993DAFAA2A3EC4
:108810002DE9F0474FF0684202EB40030C46054655
:10882000B3F1654F3CBF02EB4102B2F1654F7CD220
:10883000C0F3C753C1F3C7529A1A1B2A06DD10F0C2
:10884000004F14BF76487748BDE8F08712F11A0F41
:1088500017DA11F0004F06D010F0004F0CBF72482D
:108860007248BDE8F08721462846FAF790FF044693
:10887000FFF732FD042808BFFFF7BFFD2046BDE823
:10888000F0874200B2EB410F25D910F0004F19BF1D
:10889000674F684E684F694E224685F00044154682
:1088A0000A4680F0004110460A1A5200B2F1807F59
:1088B00040D248406249DFF88CA110F0004F18D038
:1088C0004FF03F483846FAF72AFF074651463046F0
:1088D000FAF725FF17E011F0004F04BF00263746D6
:1088E000E2D010F0004F19BF574F584E584F594E15
:1088F000DAE74FF07C583846FAF7BFFE0746514694
:108900003046FAF7BAFE064641462846FAF70DFF0A
:108910002146FAF7B2FE824621464046FAF705FFA5
:108920002946FAF7FFFE514600E037E0FAF72FFF3D
:10893000044604E021462846FAF729FF044601468A
:10894000FAF7F3FE80464449FAF7EFFE4349FAF797
:1089500094FE4146FAF7E9FE4149FAF78EFE414698
:10896000FAF7E3FE3F49FAF788FE4146FAF7DDFEE3
:108970003D49FAF782FE054641462046FAF7D5FE04
:108980002946FAF7D2FE3146FAF777FE2146FAF782
:1089900074FE3946BDE8F047FAF76FBE4FF07F42EC
:1089A000B2EB400F28BFB2EB410F03D2BDE8F04756
:1089B000FFF71DBD40EA01035B0008BF44F0FF4123
:1089C0000AD0B2EB400F08BFB2EB410F06D125F041
:1089D000804024F0804105460C4629E7B2EB400F69
:1089E00012BF5FEA410245F0FF4004F000413FF44E
:1089F0001FAF4A0092EA40033FF51AAF002AACBF0E
:108A00004FF09F464FF03E563146FAF78EFE054630
:108A100031462046FAF789FE04462846214607E7F4
:108A2000DB0FC9BFDB0FC93FDB0F4940DB0F49C07C
:108A30000000C9BF22AAFDB90000C93F22AAFD3922
:108A40000060ED3EC30ACE37000049C022AA7DBABD
:108A50000000494022AA7D3A2DAD65BD8FB8D53DB5
:108A60000FB511BE61C84C3EA8AAAABE70B50121BF
:108A70004C0286B02046FDF765FD01210820FDF778
:108A800061FD0026234D8DF81760ADF8146005A92F
:108A90002846FCF7DFFA4FF46021CDE90216009674
:108AA0008DF8046001201C4E8DF805008DF8100033
:108AB00069463046FBF706FB01213046FBF7DFFA3B
:108AC0003046FBF75DFB3046FBF7F4FA0028FAD19D
:108AD0003046FBF764FB3046FBF7DBFA0028FAD19F
:108AE0000E4E102221463046FCF72EFB482208216C
:108AF0002846FCF729FB08212846FCF739FB00280B
:108B0000F9D021463046FCF73CFB3220FCF7FBF85D
:108B100006B070BD000C0140002401400008014077
:108B200070B51E4E002529463046FBF72EFB052367
:108B3000012208213046FBF7E9FA102401213046D2
:108B4000FBF723FB02213046FBF7ADFA0028F9D0F2
:108B50003046FBF7A5FA284485B200213046FBF7E2
:108B600014FB641E14F0FF04E8D10D4C2809208288
:108B7000FAF7E8FF6FF00B01FAF747FE0949FAF739
:108B8000D4FD0949FAF7D1FD084A0949E06090424D
:108B900001DA012000E00020087070BD00240140CF
:108BA0000401002033335340A596A93FCDCC6C403F
:108BB000100400202DE9F05F554C83465549A0690B
:108BC0004FF0000AC217411842F1FF30A1FB0132F9
:108BD00000FB012201FB0028B4F91020A3FB02577F
:108BE000D61708FB027203FB0629B4F90E20A2FB7C
:108BF000017CD61706FB01C602FB0062520442EA62
:108C0000D7327F047F1942EB0902B4F90C501AEBFA
:108C1000070942EBC505B4F90A20A3FB027C4FEA21
:108C2000E27608FB02C203FB06224FEA172646EA59
:108C300002664FEA2223B4F90820A2FB01C84FEADA
:108C4000E27707FB018102FB00104FEA00314FEA97
:108C50000C3041EA1C5130184B41001CE18843F5AF
:108C60000043A0FB017603FB016100FB0A104210E8
:108C7000C31752EA030048D0CBF58010C117CE07C6
:108C8000C10746EA5006B1EB090166EB050640F65E
:108C90003545A1FB050C06FB05C5002701FB075167
:108CA000FAF7A8FCB4F91650420B42EAC142A5FB00
:108CB000027CEE1706FB02C64B1305FB0365A7FB00
:108CC000026C05FB02C207FB0323720E42EAC312C9
:108CD0005D16B4F91430A3FB007CDE1706FB00C65A
:108CE00003FB0166FB0C801843EA46336941C01858
:108CF00041EBE6414FEA016242EA1021B4F9120069
:108D00004FEA00100818BDE8F09F0020FBE70000C4
:108D1000E0030020000CFEFFFEB52D4C207E411C20
:108D20002176142853D3002020766B460622F721A3
:108D3000EC20FCF7E9FA9DF800009DF80110000313
:108D400040EA01109DF8021040EA1115A4F10C0050
:108D500045609DF803109DF80420090341EA0211C3
:108D60009DF8052041EA12111A4A8160CB10108843
:108D7000B2F90260A3EB4003C0EB21104043B2F90B
:108D8000041073430013DB12484303EBA0309061DF
:108D900000EB800080300012FAF7CBFE0E49FAF7A4
:108DA000F6FC20612846FFF705FFFAF7CBFE0B49DA
:108DB000FAF7EDFC606104F1140000F011F8029084
:108DC00004F10C0102A801F09FF9E068A060FEBD6B
:108DD0008C000020E00300200000C8420000C846CC
:108DE00070B50468B4F5000F23DB1348134900691C
:108DF000FAF743FCFAF7D8FE05460E46214610481E
:108E0000FAF7C5FCFAF7D0FE0E4A0F4B00F090FCC3
:108E100000220E4BFAF7A6FD2A463346FAF7A8FDC4
:108E20004FF000420A4BFAF715FEBDE87040FAF722
:108E3000CEBE002070BD00008C000020339388431C
:108E4000CDEC7D4428610C878A5AC83F0000F03F72
:108E5000BE9F7A3F10B58CB00AAAD021EC20FEF755
:108E6000C1F99DF82800582802D000200CB010BD90
:108E7000224B18228821EC20FCF746FAAB22F42181
:108E8000EC20FEF7D8F91422F521EC20FEF7D3F9F7
:108E90001A480DF1180C0188B0F90430B0F902201D
:108EA00084698CE81E00B0F910100DF1080CB0F9BF
:108EB0001640B0F91430B0F912208CE81E00B0F959
:108EC0000E20B0F90C10CDE90012B0F90A30B0F95B
:108ED0000820C1880AA0FFF7DBF917489DF8281081
