:020000040800F2
:10000000F00F002039010008330B0008A109000897
:10001000310B000881010008F518000800000000FD
:100020000000000000000000000000004B0100087C
:100030004D06000800000000550D0008B516000828
:100040005301000853010008530100085301000840
:100050005301000853010008530100085301000830
:1000600053010008F106000853010008530100087D
:100070005301000853010008530100085301000810
:100080005301000853010008530100085301000800
:100090008D1800085301000853010008530100089F
:1000A00053010008530100085301000853010008E0
:1000B0005301000809170008530100085301000804
:1000C00053010008530100085301000853010008C0
:1000D00053010008530100085301000853010008B0
:1000E00053010008530100081D170008DFF80CD069
:1000F00000F034F8004800470D1C0008F00F002005
:10010000EFF30980704780F309887047EFF30880A8
:10011000704780F30888704740BA7047C0BA70478C
:100120004FF0010080F31388014802490160FEE7A7
:100130000CED00E00400FA05064880470648004739
:10014000FEE7FEE7FEE7FEE7FEE7FEE7FEE7FEE787
:10015000FEE7FEE7B9160008ED000008064C074D63
:1001600006E0E06840F0010394E807009847103487
:10017000AC42F6D3FFF7BEFF541D0008741D000803
:10018000FEE7C1B2000A40EA012070472DE9F84FAE
:100190000020ADF80000DFF834A14BF6BF7648F23E
:1001A00080074A4D4A4C40F68F7848F60F7BDFF8BF
:1001B00024910AF1440A31E00888474A10F00F0000
:1001C000107034D0454901EB8001D1F8002CADF816
:1001D0000020BDF8002012040BD5D1F8002C02EA53
:1001E0000802C1F8002C3E4901EB800050F8040CD5
:1001F0008047BDF80000000610D537483749007821
:1002000001EB8001D1F8002C02EA0B02C1F8002CAE
:10021000344901EB800050F8040C8047DAF8000004
:100220004946A9F800000004C6D4BDE8F88F286844
:100230002080208800F030006080208800F440504A
:1002400020802868304080F4005080F0200038433F
:1002500028600888C006286815D400EA0B002860CA
:1002600000F0A0FB26E02188890401D580F400502D
:100270006188C90626D46188890601D580F02000EE
:1002800038432860D1E7ADF80000BDF80000000554
:1002900006D5286800EA0800286000F0E3FF09E0BE
:1002A000BDF800000004B9D5286800EA08002860FD
:1002B00000F002FD286821883040C904D3D580F4BD
:1002C0008050D0E780F01000D5E70000005C0040CF
:1002D0000E01002036000020FC00002000500040ED
:1002E0005C00002040000020810008480844D0F84D
:1002F000001C490409D5D0F8001C48F68F72114043
:100300004CF280021143C0F8001C704700500040BE
:10031000810008480844D0F8001C490609D5D0F8E7
:10032000001C48F68F72114048F2C0021143C0F819
:10033000001C704700500040810006480144D1F87D
:10034000000C48F68F62104048F280021043C1F85A
:10035000000C7047005000402DE9F047DFF8948012
:10036000254F4FF03009D8F8001001F11005088A28
:100370000E7A08B9042E04D0AC88A04215D8042601
:1003800014E01E480178012903D007261020388088
:100390002BE01B4A002112681A4B120403EBD232E5
:1003A0005160A7F8009001701FE00226844200D936
:1003B0000446A968204688478246002000F0C8FA13
:1003C00001462246504601F097FA2146002000F0EF
:1003D000AFFE2888001B2880688820446880A7F822
:1003E000009009494FF440500880D8F80000067288
:1003F000BDE8F0870001002010010020F800002077
:10040000505C0040006000400E0100202DE9F047E4
:10041000224EDFF88C803027356835F8100FA96838
:10042000A9B100B3AC88844200D90446204688476D
:1004300081462888001B2880688820446880002026
:1004400000F066FA01462246484600F059FC28882A
:1004500048B114494FF4405008800021084600F08C
:1004600067FEA8F800702888A988884201D3032075
:1004700001E020B1052031680872BDE8F0873168DD
:1004800006200872084900200968084A090402EB9E
:10049000D1314860A8F80070EFE7000000010020AB
:1004A000100100200E010020505C00400060004060
:1004B000F8B55D4C5D4D0926206800272968427813
:1004C000062A05D0AAB1082A4DD00A2A50D06BE0DE
:1004D0000278520668D18078012804D0022804D01E
:1004E000032804D060E0C96956E0096A54E0496A0B
:1004F00052E04288B2BBC288022A55D102798ABB37
:100500000278530601D1838833B102F07F02012AB9
:1005100004D0022A0CD047E045493DE08A69407981
:1005200000219047F0B92068807A0028F4D13BE0A0
:10053000417901F00F0001F070020B063D4901EB1B
:100540008001D1F8001C03D5C1F30111090102E0BB
:10055000C1F301310903384B1B78834224D90AB90E
:100560000029D9D120E0007840061DD1334913E09D
:10057000027802F07F02012A16D1827AA2B1428863
:1005800092B9027982B9C288012A0DD18A6940796B
:100590000021904740B92A4931B1206847828161E2
:1005A00000208847002006E0296820680969407813
:1005B0008847032813D021680A8AA2F57F43FF3BAE
:1005C0000BD002280ED06AB10878000626D5C8885C
:1005D000009082420AD9088218E00E72F8BD2068A5
:1005E0000672F8BD4FF008000872F8BD0ED22868F8
:1005F000144B90F82C00824201D21F7006E0B2FB2F
:10060000F0F400FB142008B901201870286890F855
:100610002C008882BDE8F840FFF79EBE03200872D8
:10062000094900030880F8BD0001002004010020F2
:100630003514000800500040E4000020C9130008F1
:100640000D140008F80000200E010020704701B4CE
:100650004FF47A71009801B0484300F001B80000EF
:1006600001B509480099006841434FF0E02041611D
:10067000016941F0010101610169C903FCD5002153
:100680000161816108BD00000000002070B50E4DC1
:100690002878012815D140210C4801F023F90404E1
:1006A000240C4FF000060DD02246C021074801F06F
:1006B00023F92146012000F03BFD012000F05EFD02
:1006C0006E6070BD2E7070BD2C000020340B0020B9
:1006D00010B50649032001F0F3F881B2034801F098
:1006E000D7F8BDE81040032000F000BD740B0020D7
:1006F00010B5082000F012F8002808D0082000F0FB
:1007000007F800F0D9FFBDE81040FFF709BD10BDA4
:10071000014908607047000014040140064A014680
:1007200000201268044B0A4014331B680B4202D0AD
:10073000002A00D0012070470004014030B51A495A
:100740008379026853B30B6893430B600A1D1368E7
:100750000468A343136002790A44136804682343BE
:100760001360114A083213680468A3431360131D11
:100770001C680568AC431C604479102C05D02144EA
:100780000A68006802430A6030BD116804682143AA
:100790001160196800680143196030BD0079084490
:1007A00001689143016030BD0004014010B58A0723
:1007B00021F003040649130F21440F228C689A404C
:1007C00094438C608A68984002438A6010BD0000A0
:1007D00000000140F0B5CA78002502F00F03D206F0
:1007E00001D58A7813430A784FF00F0E12F0FF0FED
:1007F0004FF001021CD004680F8802FA05F637405A
:10080000B74211D14FEA850C0EFA0CF724EA07071C
:1008100003FA0CF43C43CF78282F02D0482F02D0A3
:1008200002E0466100E006616D1C082DE4D304601F
:100830000C88FF2C1ED944685FF0000606F10807FB
:1008400002FA07F50F882F40AF420FD14FEA860C0E
:100850000EFA0CF7BC4303FA0CF73C43CF78282F71
:1008600000D14561CF78482F00D10561761C082E54
:10087000E4D34460F0BD0000F0B5144C002801DA68
:10088000E36900E06368420D120185B2C0F30157CD
:100890009540C0F30346032F05D0C2020AD50322B8
:1008A000B240934307E023F07062636823F0706303
:1008B000636002E0AB4343F0706201B12A43002859
:1008C00001DAE261F0BD6260F0BD000000000140AD
:1008D000F8B50D460646144601211C2000F0E0FA4A
:1008E000ADF800508DF8034003208DF802006946F2
:1008F0003046FFF76FFFF8BD0246002092680A42BB
:1009000000D00120704741617047016170470000CD
:100910000549096889B201EBC000044901EB4000B8
:10092000008980B270470000505C004000600040C9
:100930000549096889B201EBC000044901EB400098
:100940008089C0F309007047505C0040006000409F
:100950000449096889B201EBC000034931F810006D
:1009600080B27047505C0040006000400A4810B5FB
:100970000168001D0468001D006808180BD00822DB
:10098000064900F04FF8054920460422BDE8104012
:10099000103100F047B810BDE8F7FF1F0A00002033
:1009A000FEE7000010B5134C2068017A022904D03C
:1009B000042902D0062905D015E0FFF7CDFC2068F8
:1009C000007A11E04178052909D10178490606D15C
:1009D000C07800F01FFB08480068006A804707489D
:1009E000006880688047082021680872BDE81040D0
:1009F00000F0B2B90001002008010020040100202D
:100A00004FF0E020016921F004010161044809214F
:100A1000016001684FF47A7289B2514341607047B6
:100A200000000020F0B500230A24302537261F4699
:100A300011E000BFB4EB107F02D905EB107C01E0A0
:100A400006EB107C01F813C001EB430C00015B1CAA
:100A50008CF80170DBB29342ECD3F0BD00210A4860
:100A6000FFF70AFF00210948FFF706FF00F024FA0C
:100A700000F061F806490648091D00680C68FFF798
:100A800048FBA047FEE700000004300000023000F1
:100A90000034000810B5482208210548FFF718FF68
:100AA0001022BDE8104051010248FFF711BF0000BD
:100AB000000C0140000801403EB50121084600F04D
:100AC000EFF9482208211248FFF702FF0321012015
:100AD000FFF76CFE0820002400908DF804400C20E5
:100AE0008DF8050001258DF806506846FFF726FEB3
:100AF0000820FFF70DFE09208DF808008DF8094049
:100B00008DF80A408DF80B5002A800F02FF83EBD7A
:100B1000000C01400448817A044809B1052100E035
:100B20000121016070470000D40B0020E800002084
:100B3000FEE77047704708B500214FF0E0204A1EDD
:100B40000091C0F88021530DC0F88431C0F8802294
:100B5000C0F88432009800F1E02080F8001400987A
:100B6000401C00900B28F5D308BD000070B50F2382
:100B7000C47801780122F4B1144C2468457804F457
:100B8000E064C4F5E064240AC4F10406E340847818
:100B9000B5401C402C4301F1E021230181F80034D1
:100BA000007800F01F018A404009800000F1E02039
:100BB000C0F8002170BD01F01F008240480980008C
:100BC00000F1E020C0F8802170BD00000CED00E0D5
:100BD000024A1140014302480160704780FFFF1F35
:100BE00008ED00E070B52F4D2868017844784A067A
:100BF00006D001F07F00012828D002282BD035E054
:100C0000092C06D0052C07D0032C0ED0012C14D0B3
:100C10002CE000F059FC28E0C1787F292ED881789B
:100C200061BB818851BB807A27E0C17801291DD141
:100C30008088D8B900F064FC17E0C178012915D18B
:100C4000818899B9407A80060AD40FE00B2C0DD127
:100C500000F0ACFC09E0012C02D0032C03D005E02D
:100C600000F034FB01E000F05DFC58B10E49204675
:100C7000096849698847032802D018B108200DE0A7
:100C800009200BE0094A062000211268084B1204D3
:100C900003EBD2325160074A302111802968087273
:100CA00070BD00000001002004010020505C0040E5
:100CB000006000401001002010B50F4C2068007A41
:100CC000022811D004280FD0032804D0052802D010
:100CD000072805D008E0FFF799FB2068007A04E0B8
:100CE00006480068C0688047082021680872BDE88F
:100CF000104000F031B80000000100200401002085
:100D0000064B521C520803EB410105D031F8043B5D
:100D100020F8023B521EF9D17047000000600040ED
:100D20000A4B1A6822F0030202431A60084802685C
:100D300042F004020260012905D020BF016821F0C1
:100D400004010160704730BFF8E700000070004008
:100D500010ED00E0704700000C4810B590F82C1022
:100D6000002000F08BF90A480068007A082802D0B9
:100D7000092809D006E007494FF480500880064949
:100D800010200880002010BD012010BD940000201C
:100D9000000100200E0100201001002010B50120EC
:100DA00000F0C0FC0648012101600021054A0160F5
:100DB000031D19604FF4E05111800160002010BD47
:100DC000405C00400C010020164D4FF6FF74482295
:100DD00021462846FFF77CFD482221461248FFF7AE
:100DE00077FD482221461148FFF772FD482221462F
:100DF0000F48FFF76DFD102251012846FFF768FDEF
:100E000028224FF400412846FFF762FD09490020DF
:100E1000C1F8A401FFF750FE01210846FFF780FF4B
:100E2000FEE7000000080140000C014000100140F6
:100E3000001401400000214270B5002483680FE0D7
:100E4000C56806685B1C35449D4200D8C368456888
:100E50009D4207D011F8015B866835708360641C81
:100E60009442EDD3204670BD30B500230DE04468B8
:100E7000651C45602478CC54C46805682C444568DA
:100E80005B1CAC4201D8C468446045688468A542D4
:100E900004D0934202D204689C42E8D8184630BD80
:100EA000044A0029916901D0014300E08143916126
:100EB00070470000001002400C48016841F0010139
:100EC000016041680A4A114041600168094A1140C5
:100ED0000160016821F480210160416821F4FE0174
:100EE00041604FF41F018160704700000010024014
:100EF0000000FFF8FFFFF6FE2DE9F041214C072826
:100F000000D0207022781F4D0627052104261E4898
:100F1000062A0BD2DFE802F0030C11161E276868C0
:100F200010B12170BDE8F08100F030F82770F9E7CA
:100F300000F02CF82670012022E0022060700320CF
:100F40002070EFE76078401E607060780028E9D17B
:100F50002670E7E7026892B242F010020260217048
:100F60000A206070DEE76178491E617061780029AF
:100F7000D8D1016889B221F01001016027700020EA
:100F80006860CFE7F0000020405C004010B5064CE0
:100F9000206880B220F004002060FFF7BBFD4FF412
:100FA0003F40206010BD0000405C004070B512481A
:100FB000006805281FD1114C207800281BD16068DB
:100FC000411C6160052816D10020606040210C485A
:100FD00000F088FC05042D0C0DD02A46C0210848DD
:100FE00000F08AFC2946012000F0A2F8012000F060
:100FF000C5F80120207070BDE80000202C00002002
:10100000340B0020024920F0070008607047000000
:10101000505C0040F0B50E490E4D48F68F770B78C6
:10102000002148F2800C0BE0CEB205EB8604D4F828
:10103000002C3A40324342EA0C02C4F8002C491C0E
:101040009942F1D3044940F080000860F0BD0000EF
:10105000E4000020005000404C5C0040054A21F0B4
:101060000101126892B202EBC000034A02EB400099
:1010700081607047505C0040006000400D4A12687B
:101080003E2992B202EBC0000B4A02EB400209D9A2
:101090004809C90601D1401E80B24FF4004141EA1F
:1010A000802004E04808C90700D0401C800210607E
:1010B00070470000505C00400C60004082000A480D
:1010C0000244D2F8000C4BF68F731840CB0401D5C4
:1010D00080F48050890401D580F4005048F28001EA
:1010E0000843C2F8000C70470050004081000748D8
:1010F0000144D1F8000C4BF68F72104080F4405040
:1011000048F280021043C1F8000C704700500040C4
:10111000054A21F00101126892B202EBC000034AB5
:1011200042F8101070470000505C00400060004022
:10113000044A126892B202EBC000034A02EB40007C
:1011400041607047505C00400060004082000A48E7
:101150000244D2F8000C48F6BF731840CB0601D504
:1011600080F01000890601D580F0200048F280014F
:101170000843C2F8000C7047005000408100074847
:101180000144D1F8000C48F6BF72104080F03000E6
:1011900048F280021043C1F8000C70470050004034
:1011A000820005480244D2F8000C48F68F1318401C
:1011B0000843C2F8000C7047005000400CB50021F5
:1011C000264801910091026842F4803202604FF497
:1011D000A063026802F400320092019A521C01924C
:1011E000009A12B9019A9A42F3D10268920333D558
:1011F000012100911A490A6842F010020A600A6847
:1012000022F003020A600A6842F002020A604168A2
:10121000416041684160416841F4806141604168DA
:1012200021F47C114160416841F4F811416001688A
:1012300041F08071016001688901FCD5416821F0AD
:1012400003014160416841F0020141604168C1F31E
:1012500081010229FAD10CBD00910CBD00100240A1
:101260000020024070B516480068174D0004C10BFD
:1012700014480144098989B200EB41042868017AC5
:1012800009290FD02178017061784170A088FEF79C
:1012900078FF296848802089FEF773FF29688880D5
:1012A000A089C880286801210172C08828B1FFF791
:1012B000FFF8BDE87040FFF74FBDFFF793FCF8E77C
:1012C000505C004000600040000100202DE9F0412A
:1012D00038480068017811F07F0102D0022905D05A
:1012E00066E0417A01F0DF0141724EE04188002959
:1012F0005ED10179F1BB4179304D21F080040A06BD
:1013000005EB84022C4BD2F8002C03D5C2F301125A
:10131000120102E0C2F3013212031E782346A642F4
:1013200046D93AB3807A28B308064FEA84000ED52E
:101330002844D0F8000CC0F30110012821D1184630
:10134000FEF7E6FF20463021FFF700FF19E04619BF
:10135000D6F8000CC0F30130012812D14BF68F777C
:1013600048F28008A4B11846FEF7BEFFD6F8000C7C
:10137000384000E01CE080F4405040EA0800C6F825
:10138000000C0F480068406980470020BDE8F081EC
:101390000C4890F82C100020FFF770FED5F8000CD8
:1013A000384080F4405040EA0800C5F8000CE8E7F7
:1013B0000220EBE700010020E40000200050004084
:1013C000080100209400002010B5074C30B10748F8
:1013D00000680068804720680A3010BD216801203D
:1013E0000882002010BD000000010020080100203C
:1013F000054A13685A8A10B10868104470478888F3
:10140000801A1882002070470001002010B5074C98
:1014100030B1074800688068804720680C3010BDF4
:10142000216801200882002010BD0000000100207A
:1014300008010020204910B5096860B11F4800224A
:1014400002800A7853060AD002F07F02012A16D0E1
:10145000022A16D001E002200882002010BD497A3D
:101460008A06027802D542F0020201E002F0FD0293
:1014700049060270D1B211D401F0FE0110E00F480C
:1014800010BD4A79110713060D4A02EB9161D1F89C
:10149000001C07D5C1F3011106E0017841F00101FC
:1014A000017003E0C1F301310129F6D0054800685D
:1014B00000698047E3E7000000010020FA000020F7
:1014C00000500040080100200A4810B500680A4A90
:1014D000C1785278914203D882780AB982880AB1D9
:1014E000022010BD817205480068406880470020D6
:1014F00010BD000000010020E400002008010020D1
:10150000064810B50068417A41F020014172044854
:101510000068C0698047002010BD00000001002065
:101520000801002070B51D481D4D0368597921F050
:10153000800005EB80000C06D0F8004C21F0800202
:1015400003D5C4F30114240102E0C4F301342403DD
:10155000144D2D78954210D95A8872B96CB19A7A87
:101560005AB10906D0F8001C48F2800207D548F6A7
:10157000BF73194081F0100106E0022070BD4BF6E8
:101580008F73194081F480511143C0F8001C064844
:10159000006880698047002070BD000000010020C5
:1015A00000500040E40000200801002010B50E4C5F
:1015B0000E4A20681268C178926940799047216884
:1015C0008A7A22B118B9087908B9887808B1022056
:1015D00010BD07480068C068804720684179C17223
:1015E000C1780173002010BD00010020040100201B
:1015F00008010020F8B52A49002000900A68294B0C
:10160000294C92B203EB8005D5F8005CADB244F8EA
:101610002050401C0828F5D342F48060086040F058
:101620000100086020F001050D601D4A121D1068C0
:101630004005FCD54FF6FF301060002054F82060C4
:1016400003EB8007B6B2C7F8006C401C0828F5D33E
:1016500045F008000860086880B240F004000860A7
:10166000124B18680090186820F0030040F0010049
:1016700018600F48046844F0040404601468E4042B
:1016800009D54EF6FF7414600A6892B222F008027F
:101690000A6000991960016821F004010160F8BD39
:1016A000405C004000500040B40B0020007000403F
:1016B00010ED00E0704700000F4810B5016841F0E0
:1016C0000101016041680D4A1140416001680C4A06
:1016D00011400160016821F480210160416821F41A
:1016E000FE0141604FF41F018160FFF767FD05496E
:1016F0004FF00060086010BD001002400000FFF8CD
:10170000FFFFF6FE08ED00E003480188C90702D09C
:101710004FF6FE7101807047100400404FF48020A6
:10172000FEF7F6BF044A00284FF40041104601D0EE
:10173000FFF7EBB8FFF7E7B8000801402DE9F041EB
:101740004C4E88B0002430684B4D688068884B4F01
:1017500039880840800507D54FF6FF50306028785B
:10176000401C2870FFF722FC688839880840000474
:1017700001D5FEF70BFD688839884FF6FF38084021
:10178000400504D5C6F800803D4840688047698818
:1017900038880140890402D54DF6FF7131606988AF
:1017A0000140C80405D54EF6FF7030600020FFF7F9
:1017B000A3FB68883988084000050BD531480078BC
:1017C00010B1FFF717FF02E00220FFF795FB4FF281
:1017D000FF703060688839880840C00546D54FF6EC
:1017E000FF6030602348001D00684FF000020004D5
:1017F00038D56868401C68606868032833D91D487C
:10180000001F016809072ED4016889B2A9601E492A
:101810004FEA0D0301EB8407D7F8007CBFB243F811
:101820002470641C082CF5D3AC6844F00104AC604F
:10183000AC68A4B20460AC6824F00104AC60AC688D
:10184000A4B2046030684005FCD5C6F800800020D2
:1018500053F8204001EB8006A4B2C6F8004C401CAF
:101860000828F5D36A600720FFF746FB08B0BDE8FB
:10187000F0810000445C0040340000200C01002096
:1018800094000020EC00002000500040FFF756BFFD
:101890000A4601460148FFF7CFBA000014010020B4
:1018A00005490020086005494FF43F40088002497F
:1018B000091F086000207047445C00400C010020B4
:1018C00070B500F07F060D463046FFF731F804464C
:1018D0003046FFF71DF8014622462846FFF710FA6A
:1018E000204670BD0A4601460148FFF7BDBA000018
:1018F00024010020FEE70000094B10B5521C5208DD
:1019000003EB41010AD000BF10F8013B521E10F852
:10191000014B43EA042321F8043BF5D110BD00003C
:1019200000600040104A10B500211268212802D042
:10193000202807D016E0107800F07F00212811D170
:101940000A4908E0107800F07F00212800D10849FA
:10195000084B2020187029B10020916150828847DF
:10196000002010BD022010BD0001002091190008C8
:10197000E11A0008780000200149FFF739BD000096
:101980008C0000200149FFF733BD000084000020D7
:1019900008B10448704704490820096808820020FB
:1019A000704700007C000020000100200549096804
:1019B000C978042901D900207047034A02EBC1010C
:1019C000FFF716BD00010020C400002009B901285E
:1019D00001D90220704700207047000007490968BC
:1019E000097801F07F01212903D1022803D02228A0
:1019F00001D0022070470020704700000001002045
:101A0000334810B50068334A00218172D27942729E
:101A1000C1720846FFF7F6FA4FF400710020FFF795
:101A2000BFFB10210020FFF791FB40210020FFF7B2
:101A300015FB80210020FFF76BFB0020FEF77CFCEC
:101A4000254890F82C100020FFF718FB0020FFF726
:101A50004DFB00210120FFF7A3FBC0210120FFF770
:101A600057FB20210120FFF771FB00210120FFF728
:101A700025FB4FF4C0610220FFF792FB4FF4807109
:101A80000220FFF745FB00210220FFF717FB202172
:101A90000220FFF75BFB00210320FFF781FB4FF4DF
:101AA00088710320FFF7DAFA40210320FFF7E6FAF6
:101AB0004FF440510320FFF701FB00210320FFF703
:101AC00045FB0020FFF7A6FA04490120086010BD7D
:101AD00000010020DA1C000894000020E80000202B
:101AE00008B10448704704490820096808820020AA
:101AF000704700007C0000200001002003480178AE
:101B0000202901D1002101707047000078000020D9
:101B10007047000010B5FEF729FF05480024006853
:101B20008472FFF73BF9FFF7BBFE0248046010BD6B
:101B300000010020E800002002E008C8121F08C1D0
:101B4000002AFAD170477047002001E001C1121F3E
:101B5000002AFBD1704700002DE9F041134C00260C
:101B6000C4F89461C4F89061114DC5F8A061C5F83E
:101B70009061642004F5C87405F5C875FEF767FD2B
:101B80000127676027602F612F604FF49670FEF782
:101B90005EFD666026602E612E606420FEF757FDB4
:101BA000676027602F612F60BDE8F08100802142CF
:101BB0000000214210B5114C102211462046FEF7BC
:101BC00087FE102211012046FEF782FE0C4C1022E7
:101BD00011462046FEF77CFE102220212046FEF70B
:101BE00077FE08480021C0F89411C0F8901106480B
:101BF000C0F8A011C0F8901110BD0000000801400D
:101C0000000C014000802142000021421349480697
:101C1000FEF7DEFF01210846FFF742F901211048D7
:101C2000FEF72AFE01210F48FEF726FEFEF732FFDF
:101C30000D490120C1F8A401FEF7E2FEFFF7BAFF4B
:101C400000F016F8094C08212046FEF755FE002842
:101C5000F9D0FFF781FFFEF701FF00000400000844
:101C6000000430000002300000002142000C01405E
:101C7000114910B50A781148FF2A03D0FF230B70D1
:101C8000012A07D00821FEF737FE002812D000BF36
:101C9000FFF79AF80A490020C1F890010120C1F825
:101CA000A0010849C1F89001C1F894016420FEF731
:101CB000CEFCEDE710BD0000FC4F0020000C014001
:101CC0000000214200802142120100020200004077
:101CD000830440570002010203010902430002018C
:101CE00000C03209040000010202010005240010B6
:101CF0000105240100010424020205240600010755
:101D00000582030800FF09040100020A0000000721
:101D1000050302400000070581024000000403099A
:101D2000040E0342007A0058004A0057005900226E
:101D30000358002D00510075006100640072006FAF
:101D40000074006F0072002D004D0069006E006984
:101D500000000000741D00080000002014010000B5
:101D6000381B0008881E000814010020DC0E00004B
:101D7000481B00080000000000000000220358007B
:101D80002D00510075006100640072006F00740046
:101D90006F0072002D004D0069006E0069000000A8
:101DA0000000000000000000000000000000000033
:101DB000000000008D060008350B0008350B0008F8
:101DC000350B0008350B0008350B0008350B0008F3
:101DD000350B0008350B0008D1060008350B00084C
:101DE000350B0008350B0008350B0008000000001B
:101DF00000C2010000000800C81C0008120000001A
:101E0000DA1C000843000000151B0008011A000836
:101E1000FD1A0008111B000825190008DD1900082B
:101E2000CD1900088519000879190008AD190008B6
:101E300000000000400000001D1D0008040000001C
:101E4000211D00080E0000002F1D000822000000C8
:101E50000800002022000000040100000000000033
:101E60000100000000000000000000000000000071
:101E70000000000000000000000000000000000062
:081E800000000000000000005A
:04000005080000ED02
:00000001FF
