:020000040800F2
:10000000984C002099010008691600089D1100080D
:1000100065160008130C0008892300080000000082
:1000200000000000000000000000000001010008C6
:10003000170C000800000000450100088D51000861
:10004000B3010008B3010008B3010008B3010008C0
:10005000B3010008B30100083D0C0008B30100081B
:10006000B3010008B3010008B3010008B3010008A0
:10007000B3010008B3010008B3010008B301000890
:10008000B3010008B3010008B3010008B301000880
:10009000B3010008B3010008B3010008B301000870
:1000A000B3010008B3010008B3010008B301000860
:1000B000B3010008091E0008B3010008B3010008DD
:1000C000B3010008B3010008B3010008B301000840
:1000D000B3010008B3010008B3010008B301000830
:1000E000B3010008B3010008B3010008DFF80CD029
:1000F00000F0B8FC00480047BD300008984C0020D4
:10010000224B19680868B0E8F00F80F30988BFF344
:100110006F8F4FF0000080F311884EF00D0E704786
:100120000000000006480068006880F3088862B696
:1001300061B6BFF34F8FBFF36F8F00DF00BF00BF0B
:1001400008ED00E0EFF30980BFF36F8F0F4B1A68E3
:1001500020E9F00F106008B54FF0BF0080F3118860
:10016000BFF34F8FBFF36F8F04F05AFE4FF00000C4
:1001700080F31188BDE8084019680868B0E8F00FFE
:1001800080F30988BFF36F8F704700BF30000020F5
:10019000EFF3058070470000064880470648004797
:1001A000FEE7FEE7FEE7FEE7FEE7FEE7FEE7FEE727
:1001B000FEE7FEE7A91D0008ED00000840EA010384
:1001C0009B0703D009E008C9121F08C0042AFAD20D
:1001D00003E011F8013B00F8013B521EF9D27047D1
:1001E000D2B201E000F8012B491EFBD27047002279
:1001F000F6E710B513460A4604461946FFF7F0FF26
:10020000204610BDF0B480EA0102D40F4200B2EBE8
:10021000410F02D20246084611464A0042D0C30DA1
:10022000DDB2C1F3C752AD1A202D35DAC1F3160184
:1002300041F4000204B15242C5F1200602FA06F16F
:100240002A411044B3EBD05F23D0C4B1012DA0EB01
:10025000C35009DCF0BC4FF0004202EAC352DBB2EB
:1002600000F5000000F043BB400000F1807000EB9F
:10027000C350A0F1807040EAD170490009E04908FC
:1002800041EAC071A0EBC35000F50000400800EB4C
:10029000C350F0BC00F022BB6142012202EB4101DD
:1002A000001BF6E7F0BC704781F00041AAE780F040
:1002B0000040A7E780EA010210B502F000434000C9
:1002C00022D04A001FD0010E01EB1261C0F356008C
:1002D000C2F3560240F4000042F40002A0FB0220E8
:1002E00000047F39140400D0401C50EA124001D4AD
:1002F0004000491EC2B20C0604EBD010401C40085E
:10030000802A02D003E0002010BD20F00100002967
:1003100000DA0020184310BD30B480EA010202F078
:10032000004530F0004221F0004013D090B1C30DE1
:10033000D40DC2F31601C0F31600E41A41F4000113
:1003400040F400027D34914201D3641C00E0490076
:10035000002C02DA30BC002070474FF4000000236C
:10036000914201D3891A034340084FEA4101F7D172
:1003700051B1914202D14FF0004105E002D24FF05D
:10038000010101E06FF0010103EBC450284430BCCF
:1003900000F0A4BA2DE9FE4F804681EA0300C00FA9
:1003A0000C46009021F0004123F00045B8EB02001C
:1003B000A94105D24046214690461C460B460246BE
:1003C00023F00040104347D0270DC7F30A00C3F3C2
:1003D0000A510290401A019040286BDAC3F31300CF
:1003E00040F4801B0098924620B10023D2EB030A10
:1003F00063EB0B0B01985946C0F14002504600F0E8
:100400003CFA06460D4650465946019A00F054FA09
:1004100010EB08006141002487EA115284EAE77377
:100420001A4340D0009A62B3019A012A4FEA075258
:1004300015DC001B61EB02014FF0004202EA07529B
:10044000CDE90042001C41F5801132462B4600F0F8
:100450008BFA03B0BDE8F08F40462146F9E7001B58
:1004600061EB0201001C41F5801300185B4120186C
:10047000A2F5001747EB030140EAD570B6196D41AC
:1004800011E06D084FEA360645EAC0754FEA07529B
:10049000001B61EB0201001C41F5801149084FEA85
:1004A00030000019514132462B4603B0BDE8F04FF1
:1004B00000F04BBA0098012240000023D0EB02026A
:1004C00063EBE073009821464FEAE074B8EB00005C
:1004D00061EB0401E9E783F000435BE781F0004151
:1004E00058E72DE9FE4F81EA030404F0004421F0AF
:1004F000004100944FF0000B23F0004350EA010448
:100500005ED052EA03045BD0C3F30A54C1F30A5528
:100510002C44A4F2F3340194A0FB0254C1F3130160
:1005200041F48011C3F3130343F4801301FB02442D
:1005300000FB034E840A970A44EA815447EA835732
:10054000A4FB076802958D0A05FB07854FEA932CEB
:1005500004FB0C542705029D4FEA065847EA16375C
:10056000B5EB08056EEB070C870E920E47EA811774
:1005700042EA8312A7FB0201B6EB0B0164EB000415
:100580002B0D43EA0C335E1844EB1C50DA465146FF
:10059000E7FB0201C5F313044FEA0B3343EA14539C
:1005A0004FEA0432019C43EA0603A4F10C040294CE
:1005B000009CCDE900B400F0D7F903B0BDE8F08F9E
:1005C00000200146F9E72DE9F04D81EA030404F02B
:1005D000004B21F0004514464FF0000A23F0004183
:1005E00050EA050220D054EA01021DD0C5F30A5793
:1005F0000246C5F31303C1F31300C1F30A5640F4D6
:10060000801543F48013A7EB0608101BD64608F2AA
:10061000FD3873EB050002D308F1010801E09218E0
:100620005B41B8F1000F03DA00200146BDE8F08D10
:1006300000204FF48011064684460EE0171B73EB32
:10064000050705D3121B63EB050306434CEA010CB7
:1006500049084FEA300092185B4150EA0107EDD19A
:1006600052EA030012D082EA040083EA050108433B
:1006700005D0101BAB4106D20122002306E0002268
:100680004FF0004302E06FF0010253101AEB060036
:100690004CEB085110EB0A0041EB0B01BDE8F04DAB
:1006A00000F053B9C10F80EAE0700844CA079623EE
:1006B000002100F01CB90EB5C10F80EAE0700844BB
:1006C000CA07002140F233438DE80E000A460B466C
:1006D00000F04AF903B000BD00F0004220F00040F5
:1006E000C10DC0F3160040F400007F2901DA00209C
:1006F0007047962903DCC1F19601C84001E09639A4
:100700008840002AF4D04042704720F00040C10DDC
:10071000C0F3160040F400007F2901DA0020704782
:10072000962903DCC1F19601C8407047963988408C
:100730007047C1F30A5210B5C1F3130140F2FF3301
:1007400041F480119A4201DA002010BD40F2334397
:100750009A42A2F2334203DC524200F09DF810BDEF
:10076000904010BD00F0004230F000400AD0C10DB2
:1007700001F56071C0F3160042EA0151C20840075A
:100780001143704700200146704701F0004330B428
:1007900021F0004150EA010206D00A0DA2F5607274
:1007A000C1F31301002A02DC30BC00207047440F63
:1007B00044EAC104C100E01830BC00EBC25000F0B4
:1007C0008DB80000002801DBC0F10040002901DBEA
:1007D000C1F1004181427047002801DBC0F10040B7
:1007E000002901DBC1F100418842704730B50B465A
:1007F000014600202022012409E021FA02F59D4251
:1008000005D303FA02F5491B04FA02F52844151E24
:10081000A2F10102F1DC30BD2DE9F05F05460020B8
:1008200092469B4688460646814640241BE0284661
:1008300041464746224600F02FF853465A46C01A12
:10084000914110D311461846224600F016F82D1A91
:1008500067EB01084F4622460120002100F00DF809
:1008600017EB00094E41201EA4F10104DFDC4846CD
:1008700031462A464346BDE8F09F202A04DB203A51
:1008800000FA02F1002070479140C2F1200320FAE3
:1008900003F3194390407047202A04DB203A21FAE1
:1008A00002F00021704721FA02F3D040C2F1200289
:1008B0009140084319467047202A06DBCB17203A9F
:1008C00041FA02F043EAE07306E041FA02F3D04055
:1008D000C2F1200291400843194670470029A8BF81
:1008E0007047401C490008BF20F00100704710B459
:1008F000B0FA80FC00FA0CF050EA010404BF10BC0E
:10090000704749B1CCF1200421FA04F411FA0CF13A
:1009100018BF012121430843A3EB0C01CB1D4FEA73
:1009200000614FEA102042BF002010BC704700EB6E
:10093000C35010440029A4BF10BC7047401C49009C
:1009400008BF20F0010010BC704710B5141E73F1F1
:10095000000408DA401C41F1000192185B411A437F
:1009600001D120F0010010BD2DE9F04D92469B46CB
:1009700011B1B1FA81F202E0B0FA80F22032904671
:10098000FFF77BFF04460F4640EA0A0041EA0B01ED
:1009900053465A46084313D0114653EA010019D072
:1009A000C8F140025046FFF777FF05460E46504615
:1009B00059464246FFF761FF084305D0012004E095
:1009C00020463946BDE8F08D0020054346EAE07632
:1009D0002C4337430A986305E40AA0EB0800002281
:1009E000FD0A44EA47540A3002D500200146E9E7EF
:1009F000010510196941DDE9084500196941BDE8A3
:100A0000F04DA2E7C1F30A52C1F3130140F2FF33E4
:100A100041F480119A4202DA00200146704740F208
:100A200033439A42A2F2334202DC5242FFF734BF10
:100A3000FFF723BF30B5041E71F1000404DB4FF053
:100A40000044404264EB0101141E73F1000405DB15
:100A50001C464FF00043524263EB0403994208BF27
:100A6000904230BD064C074D06E0E06840F00103BF
:100A700094E8070098471034AC42F6D3FFF73AFBEE
:100A80008C6A0008AC6A000821B1826842F0010259
:100A9000826003E0826822F00102826070470146B2
:100AA00000208A6802F004020AB1012000E0002060
:100AB00070470146C86C80B2704702460020136838
:100AC0000B400BB1012000E00020704701460020E0
:100AD0008A6802F008020AB1012000E00020704795
:100AE00030B502460020002350680F4C20400D799D
:100AF0000C6844EA05242043506090680B4C204069
:100B0000D1E902542C434D7944EA450420439060D6
:100B1000D06A20F470000C7C641EE4B2234340EAE7
:100B20000350D06230BD0000FFFEF0FFFDF7F1FF83
:100B3000F0B504460D4600200021092D11DDE068C6
:100B4000A5F10A0606EB4607072606FA07F18843D1
:100B5000A5F10A0606EB460603FA06F10843E06033
:100B60000CE0206905EB4507072606FA07F18843E4
:100B700005EB450603FA06F108432061072A0FDA60
:100B8000606B561E06EB86071F2606FA07F18843A0
:100B9000561E06EB860605FA06F10843606322E05E
:100BA0000D2A0FDA206BD61F06EB86071F2606FAE2
:100BB00007F18843D61F06EB860605FA06F10843BF
:100BC000206310E0E06AA2F10D0606EB86071F26FF
:100BD00006FA07F18843A2F10D0606EB860605FA30
:100BE00006F10843E062F0BD816841F008018160D0
:100BF000704721B1826842F4A002826003E08268FB
:100C000022F4A00282607047816841F00401816093
:100C1000704700BFFEE7704701B507E042F2107170
:100C200000BF081EA1F1010291B2FAD1BDF8000087
:100C3000421E92B200920028F0D108BD10B50120EA
:100C400000F00CF810B1012000F002F810BD000017
:100C5000014908607047000014040140014600206B
:100C60000022074B1B6803EA0102054B14331B6883
:100C70000B4013B10AB1012000E0002070470000D2
:100C8000000401402DE9F041024600250026002025
:100C900000230024002791F803C00CF00F0591F801
:100CA00003C00CF0100CBCF1000F03D091F802C08F
:100CB0004CEA050591F800C0BCF1000F31D0146872
:100CC00000202BE04FF0010C0CFA00F3B1F800C04B
:100CD0000CEA03069E4220D183004FF00F0C0CFA61
:100CE00003F7BC4305FA03FC4CEA040491F803C083
:100CF000BCF1280F06D14FF0010C0CFA00FCC2F831
:100D000014C00AE091F803C0BCF1480F05D14FF0C0
:100D1000010C0CFA00FCC2F810C0401C0828D1D30A
:100D20001460B1F800C0BCF1FF0F34DD546800203E
:100D30002EE000F1080C4FF0010808FA0CF3B1F8AE
:100D400000C00CEA03069E4221D183004FF00F0C35
:100D50000CFA03F7BC4305FA03FC4CEA040491F8CF
:100D600003C0BCF1280F05D100F1080C08FA0CF8FB
:100D7000C2F8148091F803C0BCF1480F07D100F10C
:100D8000080C4FF0010808FA0CF8C2F81080401C5B
:100D90000828CED35460BDE8F0810000F0B50A46C3
:100DA000002300240021002500F00046B6F1004F8A
:100DB00002D11D4EF16901E01B4E7168C0F303457D
:100DC00083B200F44016B6F5401F08D121F07061DF
:100DD000154E766826F07066134F7E6012E000F4C0
:100DE0008016B6F5801F06D1032606FA05F4A14346
:100DF00041F0706106E0460D360103FA06F6B14394
:100E000041F0706122B1460D360103FA06F6314316
:100E100000F00046B6F1004F02D1034EF16101E04F
:100E2000014E7160F0BD000000000140F8B50646BB
:100E30000C46154601211C2000F0F6FCADF80040E0
:100E40008DF8035003208DF8020069463046FFF705
:100E500019FFF8BD0AB1016100E04161704700006F
:100E60002DE9F047044634B100231A461946C74815
:100E7000006804F0D3F9032000F052FD00B2C44929
:100E80000881022000F04CFD01B2C14841810020E0
:100E900000F046FD01B2BE488181012000F040FD16
:100EA00001B2BB48C18134B100231A461946B74884
:100EB000006804F0A1FAB649B1F91010B44AB2F9C9
:100EC0001820881AFFF7EEFB8046B149B1F91800E7
:100ED000FFF7E8FB8146AE49B1F90800FFF7E2FBF6
:100EE00082464946FFF7E0F907464146FFF714FA04
:100EF0000646A849FFF7DEF90546FFF7EDFB00B20D
:100F0000A3490884B1F91220B1F91A10501AFFF759
:100F1000C9FB80469E49B1F91A00FFF7C3FB814621
:100F20009B49B1F90A00FFF7BDFB82464946FFF72E
:100F3000BBF907464146FFF7EFF906469549FFF72B
:100F4000B9F90546FFF7C8FB01B291484184014653
:100F5000B1F91420B1F91C10501AFFF7A3FB804619
:100F60008B49B1F91C00FFF79DFB81468849B1F917
:100F70000C00FFF797FB82464946FFF795F90746B5
:100F80004146FFF7C9F906468249FFF793F905463E
:100F9000FFF7A2FB01B27E4881840146B1F9162019
:100FA000B1F91E10501AFFF77DFB80467849B1F960
:100FB0001E00FFF777FB81467549B1F90E00FFF778
:100FC00071FB82464946FFF76FF907464146FFF736
:100FD000A3F906466F49FFF76DF90546FFF77CFB5D
:100FE00001B26B48C184008C00F57A706849098DA4
:100FF000401A00B2664908800846408C00F57A70B5
:10100000498D401A00B2624948800846808C00F53C
:101010007A70898D401A00B25D4988800846B0F91F
:101020002600C0F5FA60C98D401A00B25849C88040
:101030000846B0F90600B0F57A7F02DA4FF47A700C
:10104000C8805348B0F9000040F2DC51884217DDF7
:101050004F49B1F90010A1F2DC50FFF723FB07461E
:101060004B48016B3846FFF725F906464A49FFF71A
:10107000C9F80546FFF730FB00B24549088016E085
:101080004349B1F90010A1F2DC50FFF70BFB074612
:101090003F48C16B3846FFF70DF906463E49FFF75A
:1010A000B1F80546FFF718FB00B239490880384807
:1010B000B0F9020040F2DC51884217DD3449B1F941
:1010C0000210A1F2DC50FFF7EDFA07463048416B01
:1010D0003846FFF7EFF806462F49FFF793F8054625
:1010E000FFF7FAFA00B22A49488016E02849B1F918
:1010F0000210A1F2DC50FFF7D5FA07462448016C34
:101100003846FFF7D7F806462349FFF77BF8054630
:10111000FFF7E2FA00B21E4948801D48B0F904000A
:1011200040F2DC51884217DD1949B1F90410A1F2EF
:10113000DC50FFF7B7FA07461548816B3846FFF7D2
:10114000B9F806461449FFF75DF80546FFF7C4FAFB
:1011500000B20F49888016E00D49B1F90410A1F2E0
:10116000DC50FFF79FFA07460948416C3846FFF705
:10117000A1F806460849FFF745F80546FFF7ACFA1F
:1011800000B203498880BDE8F08700008800002095
:101190002046002000007A440080BB4400BFFEE7E8
:1011A00000B54FF480600C49086000F052FA4FF42B
:1011B00000600949086000F04CFA4FF4806006496D
:1011C000091F086000F045FA4FF48060024908608A
:1011D00000F03FFA00BD0000140C01402DE9F04181
:1011E00006460F46154600BF00F094F90028FBD0D4
:1011F000A02000F061F900F0DBF9384600F05CF95E
:1012000000F0D6F900BF00F085F90028FBD0A1203E
:1012100000F052F900F0CCF900240CE000F020F9C5
:101220003055681EA04202D100F0FCF801E0FFF743
:10123000B7FF601C84B2AC42F0DB00F09BF9BDE864
:10124000F0812DE9F04707460D4614464FF000089F
:10125000C146C24600262846E91705EB5171C91060
:10126000A5EBC10101F0FF0ACAF10800C6B2204691
:10127000E11704EB5171C1F3C708E11704EB517199
:10128000C910A4EBC10101F0FF09BAF1000F28D188
:10129000B8F1000F07D14A462946384600F066F8F3
:1012A00000F086F860E00AE008222946384600F09F
:1012B0005DF800F07DF805F10800C5B20837B8F117
:1012C0000000A8F1010101F0FF08EDD1B9F1000F14
:1012D0004AD04A462946384600F048F800F068F8F7
:1012E00042E0B8F1000F07D14A462946384600F0DF
:1012F0003DF800F05DF837E0A01B84B22046E1170E
:1013000004EB5171C1F3C708E11704EB5171C91027
:10131000A4EBC10101F0FF094EB13246294638461F
:1013200000F024F800F044F8A819C5B237440AE0E8
:1013300008222946384600F019F800F039F805F17E
:101340000800C5B20837B8F10000A8F1010101F0AA
:10135000FF08EDD1B9F1000F06D04A4629463846BC
:1013600000F004F800F024F8BDE8F08770B50446FA
:101370000D46164600BF00F0CDF80028FBD0A02097
:1013800000F09AF800F014F9284600F095F800F003
:101390000FF905E0207800F08FF800F009F9641CDF
:1013A000301EA6F10101CEB2F4D100F0E3F870BD19
:1013B00010B504E000F0AEF8A02000F07DF800F0D9
:1013C000F7F80028F6D000F0D5F810BD08B50121D7
:1013D000082000F029FA4FF48060ADF800000320E7
:1013E0008DF8020014208DF8030069460C48FFF7C1
:1013F00049FC4FF40060ADF8000003208DF80200B6
:1014000014208DF8030069460548FFF73BFC0520D2
:10141000FFF702FC00F0AEF80520FFF7FDFB08BD6A
:10142000000C014000B54FF480600C49086000F0EA
:1014300010F94FF400600949091F086000F009F92C
:101440004FF480600549091F086000F002F94FF46D
:1014500080600249086000F0FCF800BD140C0140F7
:1014600000B5082100200A02124B1A6016E042065D
:10147000100E4FF480620F4B1B1D1A6000F0E9F84C
:101480004FF480620B4B1A6000F0E3F8094A083A07
:10149000126802F400620AB140F001000A1EA1F1D4
:1014A0000103D9B2E3D14FF48062024B1B1D1A60D5
:1014B00000BD0000100C014000B508211DE04FF4F4
:1014C0008062134B1A6000F0C4F800F080022AB169
:1014D0004FF400620E4B1B1F1A6003E04FF40062D2
:1014E0000B4B1A604206100E00F0B3F84FF4806206
:1014F000074B1B1F1A6000F0ACF80A1EA1F1010394
:10150000D9B2DCD14FF48062014B1A6000BD0000FB
:10151000140C014000B54FF40060154908604010FC
:10152000086000F096F812480838006808B90120F1
:1015300000E0002000F4006008B1002000BD4FF47E
:1015400000600B49091D086000F083F8084808385E
:10155000006800F4006008B10020EFE74FF400607D
:101560000349091D086000F074F80120E6E7000057
:10157000100C014000B54FF480600C49086000F089
:1015800068F84FF400600949086000F062F84FF411
:1015900080600649091F086000F05BF84FF40060A6
:1015A0000249091F086000F054F800BD140C014006
:1015B00000B54FF480601449086000F04AF84FF419
:1015C00000601149091F086000F043F84FF4806083
:1015D0000D49091F086000F03CF80B480C38006802
:1015E00000F4006038B14FF480600749086000F0F3
:1015F00030F8002000BD4FF480600349086000F01F
:1016000028F80120F6E70000140C01402DE9F04114
:1016100080460D4616461F4600BFFFF77BFF002899
:10162000FBD04046FFF748FFFFF7C2FF2846FFF711
:1016300043FFFFF7BDFF002405E0385DFFF73CFFE7
:10164000FFF7B6FF641CB442F7DBFFF793FFBDE87A
:10165000F08100BF00BF00BF00BF00BF00BF00BFE0
:1016600000BF704700BFFEE7704700001FB510A124
:1016700003C9CDE90201052202A9302000F098FA41
:1016800005226946102000F05FFA002406E01DF8EC
:101690000400C22800D003E0601CC4B2052CF6DBB5
:1016A00000BF052C02D1012004B010BD0020FBE7D3
:1016B000C2C2C2C2C200000010B5002005490860C5
:1016C0000F21202000F092FA01200349C1F8B8014F
:1016D00010BD0000B88121420080214270B504464F
:1016E000072000F04FFA054605F0400088B10020C1
:1016F000094908601E222146612000F025FA29468A
:10170000272000F073FA01200449C1F8B8014020F5
:1017100070BD0020FCE70000B8812142008021421A
:1017200010B5002016490860052216492A2000F04D
:101730003FFA05221349491F302000F039FA0321EE
:10174000232000F053FA1E21312000F04FFA00212F
:10175000212000F04BFA0B48413890F84610252024
:1017600000F044FA0E21262000F040FA0021242047
:1017700000F03CFA01200449C1F8B80110BD000096
:10178000B8812142CD0000200080214210B5002008
:10179000064908600E21202000F028FA01200449A3
:1017A000C1F8B80103F034F910BD0000B88121423E
:1017B0000080214270B50446FFF7E8FF002017497A
:1017C00008601E222146A02000F0F2F901201449F1
:1017D000C1F8B801072000F0D5F9054642F21076AD
:1017E00007E0072000F0CEF90546701E061E00D166
:1017F00003E005F020000028F3D000BFFF21E12026
:1018000000F0F4F92946272000F0F0F9FFF754FF23
:10181000012003F0FDF8202070BD0000B8812142B6
:10182000008021427047000029B1064A92690243B4
:10183000044B9A6104E0034A92698243014B9A6126
:10184000704700000010024030B500210022002443
:1018500000232D4D6D6805F00C0121B1042905D040
:10186000082923D105E0294D056022E0284D0560B7
:101870001FE0254D6D6805F47012234D6D6805F469
:101880008034022505EB92421CB9224D5543056078
:101890000BE01D4D6D6805F400351DB11B4D554322
:1018A000056002E01A4D5543056002E0174D0560E2
:1018B00000BF00BF144D6D6805F0F0010909164D19
:1018C0006B5C0568DD4045600F4D6D6805F4E061B7
:1018D000090A114D6B5C4568DD4085600A4D6D68F5
:1018E00005F46051C90A0C4D6B5C4568DD40C5606C
:1018F000054D6D6805F44041890B084D6B5CC5686A
:10190000B5FBF3F5056130BD0010024000127A000E
:101910000024F40000093D00000000201000002019
:101920002DE9F0410646002400211448FFF761F933
:1019300001231A4631461148FFF7FAF8102716E03E
:1019400001210E48FFF755F900BF02210B48FFF7B0
:10195000B4F80546002DF8D00848FFF7AAF820444F
:1019600084B200210548FFF744F9781EC7B2002F62
:10197000E6DC24112046BDE8F0810000002401408F
:1019800021B1028842F04002028004E002884FF652
:10199000BF731A40028070470246002013890B4033
:1019A0000BB1012000E00020704701468889704794
:1019B0008181704710B50022028802F441520B88E1
:1019C0004C8823438C882343CC8823430C892343AE
:1019D0004C8923438C892343CC8923431A430280B7
:1019E000838B4FF2FF74234083830B8A038210BDE5
:1019F00000B587B001210D20FFF716FF0121080374
:101A0000FFF712FFE020ADF8040001208DF806007A
:101A100018208DF8070001A93548FFF733F94FF476
:101A20008040ADF8040003208DF8060010208DF8EA
:101A3000070001A92F48FFF725F91020ADF8040091
:101A400001A92B48FFF71EF94FF40040ADF8040040
:101A500003208DF8060048208DF8070001A92548CD
:101A6000FFF710F90120244908600020ADF80800B4
:101A70004FF48270ADF80A000020ADF80C00ADF80C
:101A80000E00ADF810004FF40070ADF812001020F9
:101A9000ADF814000020ADF816000720ADF81800CE
:101AA00002A91648FFF786FF01211448FFF768FFD7
:101AB000FFF7DCFD90B912A20121002001F0F4FF34
:101AC0000BE01248006808B9012000E000200F492F
:101AD00008604FF47A70FFF79FF8F2E76420FFF791
:101AE0009BF8FFF71DFEFFF7E7FD07B000BD000004
:101AF00000080140000C01409001214200300140EB
:101B00006E5246206572726F72210000B4812142CC
:101B100010B5044600BF02210A48FFF73DFF002828
:101B2000F9D021460748FFF743FF00BF01210548D0
:101B3000FFF732FF0028F9D00248FFF736FFC0B2A6
:101B400010BD0000003001402DE9F04107460D4670
:101B5000164600200A4908603846FFF7D9FF80463C
:101B6000002405E0FF20FFF7D3FF2855601CC4B216
:101B7000B442F7DB0120024908604046BDE8F0812D
:101B80009001214270B504460020074908602046B4
:101B9000FFF7BEFFFF20FFF7BBFF0546012003490B
:101BA000C1F89001284670BD9001214200002142F9
:101BB0002DE9F04107460D46164600200A49086007
:101BC0003846FFF7A5FF8046002404E0285DFFF7B4
:101BD0009FFF601CC4B2B442F8DB012002490860D8
:101BE0004046BDE8F08100009001214270B50546F5
:101BF0000C460020074908602846FFF789FF064683
:101C00002046FFF785FF01200349C1F890013046C7
:101C100070BD000090012142000021422DE9F041F9
:101C200005460E46144621462846FEF7D5FD0ED23F
:101C300021463046FEF738FB074621462846FEF788
:101C400033FB80463946FEF767FBBDE8F08184F040
:101C5000004729463846FEF7BFFD0DD221463046E3
:101C6000FEF722FB074621462846FEF7CBFA8046C0
:101C70003946FEF751FBE8E70020E6E710B500F033
:101C800001F810BD0CB500200190009033480068A9
:101C900040F480303149086000BF3048006800F4EB
:101CA000003000900198401C0190009818B90198EC
:101CB000B0F5A06FF1D12948006800F4003010B1F0
:101CC0000120009001E0002000900098012843D1FD
:101CD0002348006840F01000214908600846006869
:101CE00020F0030008600846006840F00200086029
:101CF0001A484068194948600846406848600846E4
:101D0000406840F4806048600846406820F47C10D9
:101D100048600846406840F4F8104860084600688B
:101D200040F08070086000BF0C48006800F0007050
:101D30000028F9D00948406820F0030007494860AE
:101D40000846406840F00200486000BF0348406811
:101D500000F00C000828F9D10CBD00000010024072
:101D60000020024070B506460C46154600BFFFF73E
:101D7000D1FB0028FBD03046FFF79EFBFFF718FC95
:101D800018B9FFF7F7FB002070BD2046FFF794FB62
:101D9000FFF70EFC2846FFF78FFBFFF709FCFFF764
:101DA000E9FB0120F0E7000010B51348006840F09F
:101DB00001001149086008464068104908400E4972
:101DC0004860084600680E4908400B49086008460C
:101DD000006820F4802008600846406820F4FE0077
:101DE00048604FF41F008860FFF748FF4FF0006025
:101DF0000449086010BD0000001002400000FFF818
:101E0000FFFFF6FE08ED00E00448008800F0010046
:101E100018B14FF6FE700149088070471004004069
:101E200008B503F0E3FB009007E06421684602F088
:101E300009FE01F0BDFE01F00DFDF6E708B503F067
:101E4000D5FB00905DE03221684602F0FBFD2D4895
:101E50004078042816D100202A4948702A48006892
:101E600002F078FF01F0CCFD002003F009F801F04A
:101E7000C7FD26A200210C2001F016FE22480068B2
:101E800002F0EEFE2448006868B9022002F0C0FDAE
:101E900002E0022002F0BCFD1F4800680028F8D0D4
:101EA00001201E4988711E48006868B9022002F0AE
:101EB000AFFD02E0022002F0ABFD194800680028E7
:101EC000F8D001201549C8711348001F006870B987
:101ED000022002F09DFD02E0022002F099FD0E4872
:101EE000001F00680028F7D001200C4908720A483A
:101EF0009030006808B9012000E0002006499031C8
:101F00000860A0E7E846002080000020582D4D69B9
:101F10006E692056302E3100108121426C00002065
:101F20003C01224208B503F061FB009011E114214D
:101F3000684602F087FD8748FFF7D0FB402812D1A2
:101F40000120854908700020488008718348006896
:101F500008B9012000E00020804908600120804984
:101F6000C1F8A40114E000207B49087008460079FC
:101F700070B908464088401C48800846408864285C
:101F800006DB012008710020488074490C39086084
:101F90000120FEF765FF73480088000A6D491E396D
:101FA00008707048007848706E484088000A887051
:101FB0006C488078C8706B488088000A087169484E
:101FC000007948716748C088000A8871654880793F
:101FD000C871002008726448407801280AD10020A6
:101FE000614948705B481E38007A40F00100594949
:101FF0001E3908725C48407802280AD100205A49EC
:10200000487054481E38007A40F0020051491E3989
:10201000087252489C38006838B94E481E38007A19
:1020200040F004004B491E3908724A481E38007AB5
:1020300040F0080047491E3908724B484078032891
:102040000AD100204849487042481E38007A40F0C2
:10205000100040491E3908723F48807950B1002075
:102060003D4988713B481E38007A40F020003949CC
:102070001E3908723848C07950B100203649C871FD
:1020800034481E38007A40F0400032491E39087248
:102090003148007A10B930484079C8B12E484079AB
:1020A00028B900202C4908710120487105E02A4810
:1020B000007910B100202849487100202649087293
:1020C00024481E38007A40F0800022491E390872E8
:1020D000002020491E3948722448007800F0010091
:1020E00020B10846407A40F0010048721F4800784D
:1020F00000F0020038B117481E38407A40F0020064
:1021000014491E3948721948007800F0100038B19F
:1021100010481E38407A40F004000E491E394872BB
:102120001348407838B10B481E38407A40F0080018
:1021300008491E39487207481E38FFF73BFB07481D
:10214000001D006808B9012000E000200349091DB6
:102150000860ECE6AA0000206C000020B08121425B
:102160000080214220460020E8460020E4000020B4
:10217000E50000207CB5054602F0FEFB012003F0DF
:102180001FF8214908602148042100234FF496627A
:10219000CDE900101EA1204803F0F8F91F480321E3
:1021A00000234FF49662CDE900101DA11F4803F0F3
:1021B000EDF91F480221002340F2DC52CDE9001066
:1021C0001CA11F4803F0E2F91E4A0021084601F055
:1021D0009AFC02F0BBFF044623461BA200214020CC
:1021E00001F062FC4FF47A70FEF716FD01F008FC76
:1021F00018A200210C2001F057FC1948006802F0D9
:102200005BFC02F0CBFB7CBD880000207C00002042
:102210004D5F53656E640000251F00088400002098
:102220004D5F4B657948616E646C65003D1E00082A
:10223000800000204D5F446973706C61790000007C
:10224000211E0008506A000866686561703A2564BE
:1022500062000000582D4D696E692056302E310005
:102260007800002001F40072B2F5007F00D100BFB9
:10227000CA430280704721B1828942F400528281B0
:1022800004E082894DF6FF731A408281704702464E
:102290000020B1F5007F00D100BF13880B400BB1C7
:1022A000012000E0002070472DE9F04786B0054688
:1022B0000E460024A24600BFA1460027B08900B107
:1022C00000BF2F462C8A4CF6FF700440F088044370
:1022D0002C82AC894EF6F3100440B0883189084353
:1022E000718908430443AC81AC8A4FF6FF40044037
:1022F000B0890443AC8201A8FFF7A6FA1F488742C1
:1023000002D1DDF810A001E0DDF80CA0A88900F4EE
:10231000004040B10AEBCA0000EB0A1031684900E6
:10232000B0FBF1F807E00AEBCA0000EB0A103168D5
:102330008900B0FBF1F86420B8FBF0F0040120093B
:10234000642101FB1089A88900F4004040B13220CB
:1023500000EBC900B0FBF1F000F00700044308E017
:10236000322000EB09106421B0FBF1F000F00F0007
:1023700004432C8106B0BDE8F0870000003801401E
:10238000C1F308028280704700BFFEE700B587B046
:1023900001214802FFF748FA00208DF81B000320B6
:1023A000ADF8180006A91A48FEF76CFC0020ADF83D
:1023B000180006A91748FEF765FC002001908DF86B
:1023C000080001208DF809004FF4602003900020E0
:1023D000049005208DF8140001A90F48FEF780FB3A
:1023E00001210D48FEF750FB0B48FEF7FDFB00BF37
:1023F0000948FEF76BFB0028FAD10748FEF704FCFA
:1024000000BF0548FEF74BFB0028FAD107B000BD1E
:1024100000080140000C0140002401400FB4054BAE
:1024200010B503A9044A029800F0ECF810BC5DF85E
:1024300014FB00003D2D0008F000002037B51446C5
:102440000846064B6A46214600F0DCF80446694619
:10245000002000F06EFC20463EBD0000332D000839
:1024600002E008C8121F08C1002AFAD1704770475D
:10247000002001E001C1121F002AFBD170470000BB
:102480002DE9FF5F82B00021DDE90430020DDDF8A7
:1024900040B0034318D044F61050A2F2FF3242433A
:1024A0001514119801281FD0A5EB0B00401C5FEA02
:1024B000000A4FF000064E4FDFF83891B046504604
:1024C00015D5CAF1000413E0119801244AA301288C
:1024D00001D16FEA0B010298119AC0E90031C0E9FD
:1024E000024206B0BDE8F09FCBF10000DFE70446F2
:1024F0000021404A491842EB0450CDE9001012E097
:10250000E00707D032463B4640464946FDF7E9FF23
:102510008046894632463B4610461946FDF7E1FFA4
:1025200006460F466410002CEAD1DDE90401DDE91E
:102530000023BAF1000F06DAFDF7D3FF42464B46FF
:10254000FDF7CFFF05E0FEF73EF842464B46FEF7AB
:102550003AF804460E460022284BFEF76BFA03D8E1
:102560004FF0FF30014607E00022254B2046314660
:10257000FDF710FFFEF746FA102409E0002C0ADBF5
:102580000A220023FEF748F9039B30321A55641ED5
:1025900050EA0102F2D1641C039AC4F111031444FD
:1025A000119A012A03D0012208430DD10AE0084301
:1025B00004D000204FF0110B119072E7A3EB0B0534
:1025C0006D1E0DE05B4504DD4FF0000205F10105D5
:1025D00004E003DA4FF00002A5F10105002AECD077
:1025E00002981199C0E90231C0E9004579E700007D
:1025F000000014400000F03F300000000000F043F5
:102600000000E03F2DE9FF4F95B09B468946064606
:1026100000250FE2252877D100242746F84A01211A
:10262000059400E0044316F8013F203B01FA03F053
:102630001042F7D130782A2811D06FF02F0330786C
:10264000A0F13002092A16D8059A44F0020402EBE0
:10265000820203EB42021044761C0590EFE759F822
:10266000042B0592002A03DA504244F400540590EA
:1026700044F00204761C30782E2816D116F8010F8B
:1026800044F004042A280DD06FF02F023078A0F116
:102690003003092B09D807EB870302EB4303C71864
:1026A000761CF3E759F8047B761C30786C280FD041
:1026B00006DC4C2817D068280DD06A2814D104E015
:1026C000742810D07A280FD10DE044F400140AE0E9
:1026D00044F4801401E044F440147278824202D140
:1026E00004F58014761C761C307866280BD013DC39
:1026F000582877D009DC002875D04528F6D0462820
:10270000F4D047281AD19DE118E0632835D0642819
:1027100079D0652812D195E1702873D008DC67283C
:10272000F1D069286FD06E280DD06F2806D1B5E0A2
:1027300073282CD0752875D0782874D05A461799EC
:1027400090476D1C75E1C4F30250022809D003289C
:102750000DD0D9F8001004280DD00D6009F104093E
:1027600067E1D9F80010EA17C1E90052F6E7D9F895
:1027700000100D80F2E70D70F0E719F8041B8DF8DA
:10278000001000208DF80100EA46012003E059F80E
:1027900004AB4FF0FF3061074FF0000102D40DE0B1
:1027A00008F101018846B9420FDA8045F8DB1AF8D2
:1027B00008100029F4D108E008F10101884681429F
:1027C000FADB1AF808100029F6D105985B46A0EB51
:1027D000080721463846179A00F094FA284400EB7F
:1027E000080507E04DE029E10DE01AF8010B5A4613
:1027F00017999047B8F10108F7D25B462146384651
:10280000179A13E142E00A220092C4F302524FF0F9
:10281000000A022A08D059F804CB032A4FEAEC71C7
:102820000AD00DE029E02AE009F1070121F00702B2
:10283000F2E802C1914609E00FFA8CFC4FEAEC7114
:10284000042A03D14FFA8CFC4FEAEC71002907DA15
:102850000A460021DCF1000C61EB02012D2202E0AE
:10286000220504D52B228DF80420012203E0E20783
:1028700001D02022F7E7904659E00A2102E0102219
:102880000DE010214FF0000A00910BE010224FF0F4
:10289000000A44F004040827009203E008224FF0E5
:1028A000000A0092C4F30252022A05D059F804CB60
:1028B0000021032A08D009E009F1070121F00702ED
:1028C000F2E802C1914605E01FFA8CFC042A01D10E
:1028D0000CF0FF0C4FF00008220728D5702806D016
:1028E000009B83F0100353EA0A0305D00EE0402258
:1028F0008DF80420012208E05CEA010206D03022B3
:102900008DF804208DF8050002229046009B83F08C
:10291000080353EA0A030AD15CEA010201D1620703
:1029200005D530228DF804204FF001087F1E58286D
:1029300004D034A003900EA802900DE036A0F9E771
:1029400053466046009AFDF767FF84460398825C11
:102950000298401E029002705CEA0100F0D10298D9
:1029600006A9081A00F1200A600702D524F4803471
:1029700000E00127574502DDA7EB0A0000E0002038
:1029800000EB0A01009005984144401A0590E003CD
:1029900006D45B462146179A059800F0B3F9054422
:1029A000002706E001A85A46C05D179990476D1CA4
:1029B0007F1C4745F6DBE0030CD55B462146179AA2
:1029C000059800F09FF9054404E030205A46179915
:1029D00090476D1C0099481E00900029F5DC08E026
:1029E000029802995A460078491C0291179990471B
:1029F0006D1CBAF10001AAF1010AF1DC65E10000E9
:102A000009280100303132333435363738396162C4
:102A10006364656600000000303132333435363788
:102A200038394142434445460000000000F058F95F
:102A30000544761C307800287FF4ECAD19B02846A8
:102A4000BDE8F08F620700D4062709F1070222F0E3
:102A5000070CFCE80223E14603F000485FEA080C9B
:102A600002D00FF2702C0DE05FEA045C02D50FF289
:102A7000682C07E05FEAC47C02D00FF2602C01E012
:102A8000AFF2700C4FF0FF3823F00043CDF850C088
:102A900065280CD006DC452809D046281DD04728DB
:102AA0003DD13DE0662818D067287ED138E000216E
:102AB000112F01DB112000E0781CCDE9000106A9EF
:102AC0000EA8FFF7DDFCDDE90F010E9A039100214E
:102AD000009207F1010A04914DE04FF00040009789
:102AE000CDE9011006A90EA8FFF7CAFCDDE90F0227
:102AF00003920E9B11990022DDF80CA00093049222
:102B000011B9791C00EB010AB7EB0A0004D4C0F13B
:102B1000FF3007F1010A0490AAEB0700019044E09E
:102B2000012F00DA01270021112F01DD112000E023
:102B30003846CDE9000106A90EA8FFF7A1FCDDE9A2
:102B40000F010E9A0391002104910092BA462107C9
:102B50000CD40399514500DA8A46BAF1010F05DD1C
:102B6000009AAAF10101515C302908D0B84202DA7A
:102B700010F1040F06DA0121CDE9011015E0AAF1E8
:102B80000101E9E7002805DC049901440491AAEB5E
:102B9000000102E0411C514500DD8A460499401ABB
:102BA000401C01904FF000400290200704D401988F
:102BB000504501DBCDF8048000208DF84F000298CD
:102BC0000DF14F07B0F1004F25D02B200E90029849
:102BD0004FF0020800280CDA404202902D200E909F
:102BE00007E00A210298FDF701FE3031029007F854
:102BF000011DB8F10001A8F10108F2DC02980028DB
:102C0000EFD1791E0E980870307800F0200040F067
:102C1000450007F8020D12A8C01B00F10708149820
:102C2000007800B1012000EB0A01019801EBE0718E
:102C300005984144401A401E0590E00306D45B46C7
:102C40002146179A059800F05DF80544149800781D
:102C500018B15A46179990476D1CE00324D55B467E
:102C60002146179A059800F04DF805441CE0049899
:102C7000002807DBDDE90301884203DD0098405CA2
:102C8000179901E0179930205A469047049805F1AA
:102C90000105401C04900198401E019004D12E2093
:102CA0005A46179990476D1CBAF10001AAF1010A22
:102CB000DDDC05E017F8010B5A46179990476D1CAB
:102CC000B8F10001A8F10108F4DC5B462146179A2F
:102CD0000598ABE62D0000002B000000200000004E
:102CE0002DE9F041044600251E461746880404D409
:102CF00005E039462020B0476D1C641EF9D52846F2
:102D0000BDE8F0812DE9F041044600251E469046BD
:102D1000C80301D5302700E02027880404D505E04A
:102D200041463846B0476D1C641EF9D52846BDE8BB
:102D3000F0810A68531C0B601070704770B5044630
:102D40000D46E1B20548FFF71BFB00BF8021034899
:102D5000FFF79DFA0028F9D0204670BD00380140E9
:102D600030B58BB005460C462822214901A8FDF755
:102D700025FA04EB840001AA52F820102846FDF73A
:102D80002BFD02D81B480BB030BD04EB840001AA18
:102D900002EB800041682846FDF71EFD01D8164869
:102DA000F1E704EB840001AA02EB80008168284669
:102DB000FDF712FD01D81148E5E704EB840001AAF4
:102DC00002EB8000C1682846FDF706FD01D80C48DB
:102DD000D9E704EB840001AA02EB800001692846D0
:102DE000FDF7FAFC01D80748CDE70748CBE700001C
:102DF000646A00087869000870690008686900085A
:102E000060690008586900085069000830B587B04B
:102E10005949B1F91010A1F2DC50FDF743FC054609
:102E2000564A5749FEF7FAFE04465649FDF742FA5C
:102E300004905149B1F91210A1F2DC50FDF732FCB7
:102E400005464E4A4E49FEF7E9FE04464D49FDF758
:102E500031FA05904849B1F91410A1F2DC50FDF7A0
:102E600021FC0546484A4649FEF7D8FE0446474934
:102E7000FDF720FA06904049B1F91810A1F2DC5094
:102E8000FDF710FC05463D4A3D49FEF7C7FE0446E6
:102E90003F49FDF70FFA01903749B1F91A10A1F235
:102EA000DC50FDF7FFFB0546344A3549FEF7B6FE18
:102EB00004463749FDF7FEF902902F49B1F91C107D
:102EC000A1F2DC50FDF7EEFB05462F4A2C49FEF738
:102ED000A5FE04462F49FDF7EDF9039004990198EA
:102EE000FDF770FC09D204990198FDF715FA224903
:102EF00008634FF07E50C86308E001990498FDF71D
:102F00000BFA1D49C8634FF07E500863059902987B
:102F1000FDF758FC0AD205990298FDF7FDF916490C
:102F200048634FF07E511448016409E00299059806
:102F3000FDF7F2F9104908644FF07E510E484163E5
:102F400006990398FDF73EFC0AD206990398FDF70F
:102F5000E3F9094988634FF07E510748416409E06D
:102F600003990698FDF7D8F9034948644FF07E515C
:102F70000148816307B030BD204600200000484270
:102F80000000FA430000204200008C42E22E65421D
:102F9000000020C2E22E65C210B501210846FEF7EE
:102FA00043FC01210C48FDF7F9FE01210B48FDF718
:102FB000F5FE04224FF460410948FDF737FF042273
:102FC00038210848FDF732FF10224FF44C510548D4
:102FD000FDF72CFF10BD000000043000000230009F
:102FE00000100140000C014000212D4801720175C4
:102FF0002C48017201752C480172017580F820106F
:103000002A48017201752A480172017580F8201062
:103010002848007800F0010018B101212048017211
:1030200002E001211E4801752248007800F00200EC
:1030300018B101211B48017202E0012119480175F4
:103040001C48007800F0040040B91A48007800F0ED
:10305000080018B901211448017211E015480078E0
:1030600000F0040040B11348007800F0080018B9DF
:1030700001210D48017503E001210B4880F8201063
:103080000C48007800F0100010B1012107480172CF
:103090000948407810B101210448017570470000CB
:1030A0003047002078470020C04700200848002013
:1030B00050480020E4000020E50000201CB5FFF788
:1030C0006BFFFEF783F900F0BBFCFFF75FF901F03F
:1030D000D3FBFEF78DFC012001F0D2FE00F0E6FAF2
:1030E0000648012100236422CDE9001004A106480E
:1030F00002F04CFA01F0FCFD00BFFEE77800002072
:103100005374617274210000752100082DE9F04F9D
:1031100087B0E248007900283ED0E14A0021084605
:1031200000F0F1FCDF4A0021682000F0ECFCDEA298
:1031300000216E2000F0B8FCDC48006820BBDC4AAF
:1031400003211D2000F0DFFCDA48007800F00100C8
:1031500028B1D94A0321012000F0D5FC04E0D74A68
:103160000321012000F0CFFCD248007800F00200DB
:1031700028B1D34A03216D2000F0C5FC04E0D14AF8
:1031800003216D2000F0BFFC0020CF490860CF492B
:103190000860CF490860D3E0C04800780028FAD022
:1031A000CC48817FC07F41EA002000B2ADF8140016
:1031B000C84890F8201090F8210041EA002000B2A1
:1031C000ADF81600C34890F8221090F8230041EAA9
:1031D000002000B2ADF81800BDF91400642190FB86
:1031E000F1F42046FDF75EFAB8490860BDF9160013
:1031F000642190FBF1F42046FDF754FAB4490860CD
:10320000BDF91800642190FBF1F42046FDF74AFA5D
:10321000AD490860AF4890F8251090F8260041EAC3
:10322000002000B2ADF81A00BDF91A00FDF73AFA15
:10323000A9490190FDF770F88346FDF793FAA74A74
:10324000A74BCDE90201FDF746F906460022A54B42
:10325000FDF7B9F980460022A34BFDF742F9044679
:10326000FDF793FA0490A1490498FDF7B5FA01D24D
:103270009E4800E00498049000210498FDF7A2FA0B
:1032800001D2002000E0049804900498FDF76AFA47
:1032900097A2CDE9000100216E2000F005FCBDF9E8
:1032A0001A00FDF7FFF906468B49FDF735F805468C
:1032B0000121FFF755FD044622460021682000F059
:1032C00022FC8D4A0021084600F01DFC774800686A
:1032D00060BB804890F8240000F0010028B1874AC4
:1032E00003211D2000F00FFC04E0714A03211D2082
:1032F00000F009FC774890F8270000F0010028B1A1
:103300006D4A0321012000F0FEFB04E06B4A03211B
:10331000012000F0F8FB6F4890F8270000F0020051
:1033200028B1674A03216D2000F0EDFB04E0654AF7
:1033300003216D2000F0E7FB00205849087000BF12
:103340006F480068FDF70EFA644A6E4BCDE9040140
:10335000FDF7C1F8064600226B4BFDF734F98046B5
:103360000022614BFDF7BDF80446FDF70EFA8246D8
:103370005E495046FDF730FA01D25C4800E0504605
:10338000824600215046FDF71DFA01D2002000E0E0
:10339000504682465046FDF7E5F955A2CDE90001B9
:1033A00000215A2000F080FB002155480068FFF7FB
:1033B000D7FC044622460021542000F0A4FB01F073
:1033C0000DF93A480068002864D0002500263748E7
:1033D000006890F90000032800DA04E03348006830
:1033E0000078801EC5B2E81CC6B23048006890F96B
:1033F0004400B04203DC2D48006890F844602C463D
:1034000045E02A48006890F90000A04209D1601BFD
:10341000012202EB4000C1B23C4A172000F073FBCE
:1034200008E0601B012202EB4000C1B2384A1720BD
:1034300000F069FB04EB44031C480068001D50F8D1
:103440002320601B012303EB4000C1B2272000F0C2
:103450005AFB04EB440115480068001D00EB810095
:10346000007948B1601B012202EB4000C1B2294A39
:103470005B2000F048FB08E0601B012202EB4000EB
:10348000C1B2254A5B2000F03EFB601CC4B2B442CE
:10349000B7DB00BF07B0BDE8F08F00006C00002074
:1034A000486900085069000830300000E000002042
:1034B00030690008E400002080690008886900087D
:1034C0009069000898690008DC000020D8000020FE
:1034D000D40000208C0000200000C8429A999999DD
:1034E000999909400000F03F000059400000C64291
:1034F00025322E3066000000406900083869000857
:10350000EC00002099990D400000E03F386A000867
:10351000406A0008286A0008306A00085C480068B1
:103520005C49884223D100201AE05949096891F981
:103530000010814209D1012200EB4003544909687F
:10354000091D01EB83010A7108E0002200EB400332
:103550004F490968091D01EB83010A71411CC8B27A
:103560004B49096891F944108142DEDC8FE04848FC
:1035700000684949884223D100201AE0444909687B
:1035800091F90010814209D1012200EB400340492A
:103590000968091D01EB83010A7108E0002200EBB4
:1035A00040033B490968091D01EB83010A71411C75
:1035B000C8B23749096891F944108142DEDC66E0FF
:1035C000334800683549884223D100201AE0304949
:1035D000096891F90010814209D1012200EB4003F2
:1035E0002B490968091D01EB83010A7108E00022DB
:1035F00000EB400326490968091D01EB83010A71AC
:10360000411CC8B22249096891F944108142DEDCAC
:103610003DE01F480068224988421CD11C480068D0
:1036200090F9000000EB400119480068001D00EB14
:103630008100007908B9012200E0002214480068E6
:1036400090F9000000EB400111480068001D00EBFC
:10365000810002711BE00E4800681249884216D1B1
:103660000B48006890F9000020B1012806D002281C
:103670000CD107E001200C49487007E002200A49FC
:10368000487003E004200849487000BF00BF70473D
:10369000E00000203047002078470020C04700208D
:1036A0000848002050480020E846002000B50020CF
:1036B000504908704870052081F844004E48486021
:1036C0004E494C48C1604E4901614E4981614E49A5
:1036D000C1614E4941624E4981624E4901634E4982
:1036E00041634E49C16300204249086400BF42E083
:1036F000404A00EB4003111D01EB830189680A6415
:10370000002200EB40033B49091D01EB830189685E
:103710000A7000EB40033749091D01EB83018968FA
:103720004A7000EB40033349091D01EB83018968AE
:10373000CA6000EB40032F49091D01EB8301896832
:103740008A6100EB40032B49091D01EB8301896865
:103750004A6200EB40032749091D01EB8301896898
:103760000A6300EB40032349091D01EB83018968CB
:10377000CA63411CC8B20528BADB29481F49486002
:1037800028491E48016102201C4981F8440026484E
:103790001C49486025491B4801610220194981F8EC
:1037A00044002348194948602249184801612249C8
:1037B000C1610320154981F844002048154948603B
:1037C0001F49144801610220124981F844001D4834
:1037D000124948601C49114801611C49C16103201C
:1037E0000E4981F84400002019490860FFF7FCFBEE
:1037F00000BD0000E8460020A06900083047002016
:10380000A869000878470020B0690008C047002078
:10381000B869000808480020C06900085048002026
:10382000C8690008D0690008D8690008E069000884
:10383000E8690008F0690008F8690008006A0008F3
:10384000086A0008106A0008186A0008206A000860
:10385000E000002010B56348006800287ED0624870
:10386000B0F90000A0F2DC50C82825DD022001F0EC
:10387000CFF802E0022001F0CBF85B48B0F900007D
:10388000A0F2DC50C828F5DC564800680078401CDF
:1038900040B25449096808705248006890F9001015
:1038A0005048006890F94400401E814232DD0020FB
:1038B0004C49096808702DE04B48B0F90000A0F2AF
:1038C000DC5010F1C80F25DA022001F0A1F802E067
:1038D000022001F09DF84448B0F90000A0F2DC504D
:1038E00010F1C80FF4DB3F4800680078401E40B27A
:1038F0003C49096808703B48006890F900000028BE
:1039000008DA3848006890F84400401E40B2354953
:103910000968087035480068D0B9022001F078F8CD
:1039200002E0022001F074F8304800680028F8D066
:103930002C480068006C60B900F008FE002029499E
:10394000086000F05DF82AA200210C2000F0ACF81D
:1039500004E024480068006C224908602348001DE8
:103960000068C8BB022001F053F802E0022001F019
:103970004FF81E48001D00680028F7D000F040F8FE
:103980001BA200210C2000F08FF81648006840B9F7
:10399000FFF72AFB194813490860002009680870DE
:1039A0001DE01048006890F9000000EB40010D4850
:1039B0000068001D00EB8100806870B10948006854
:1039C00090F9000000EB400106480068001D00EB84
:1039D000810080680349086001E0FFF79FFDFFF761
:1039E00095FB10BDE000002020460020340122425B
:1039F000582D4D696E692056302E3100E846002062
:103A000010B500BFFDF786FD0028FBD07820FDF73C
:103A100053FDFDF7CDFD4020FDF74EFDFDF7C8FD40
:103A2000002406E00020FDF747FDFDF7C1FD601C06
:103A300004B2B4F5806FF5DBFDF79CFD10BD00000E
:103A400000B587B0182211A101A8FCF7B7FB10221E
:103A500004211448FDF7EAF9002204211148FDF77A
:103A6000F9F93220FDF7D8F8012204210D48FDF7BD
:103A7000F1F93220FDF7D0F801AB152200217820B2
:103A8000FDF7C4FDFFF7BCFF07B000BDAED580A8B1
:103A90003FD300408D14A1C8DA1281FF2000A4A6F4
:103AA000AF000000000C01400FB430B587B00446F1
:103AB0000D460DA8009001A8009A0C99FEF7BEFCD7
:103AC00001AA2946204600F053F80020009007B0D4
:103AD00030BC5DF814FB70B504460D4605F1B0002E
:103AE000C2B200217820FEF73DF9102000EB14123D
:103AF00000217820FEF736F904F00F02002178202B
:103B0000FEF730F970BD2DE9F04180460F461446AE
:103B1000002516E0E819C1B24046FFF7DCFF002699
:103B20000AE02188606801FB0500825D4021782061
:103B3000FEF718F9701CC6B22088B042F1DC681C90
:103B4000C5B26088A842E5DCBDE8F08110B5044646
:103B50002078203800EB4000044901EB40030622A6
:103B600040217820FDF752FD10BD000000590008EB
:103B700070B506460D46144629463046FFF7ABFFA2
:103B800011E020780A2807D1681CC0B2054601461A
:103B90003046FFF7A0FF05E020780D2802D0204630
:103BA000FFF7D4FF641C20780028EAD170BD000024
:103BB0002DE9F05F00231A4619461948006801F004
:103BC0002DFB0820FDF7ACFE00B21649088000234B
:103BD0001A4619461248006801F00EFC1148B0F967
:103BE0000000FCF75FFD83464FF08B41FCF794FB30
:103BF00082460D49FCF75EFB81460C49FCF75AFBF7
:103C00000446FCF7AFFD0746094A0A4BFCF7C2FB26
:103C10000546FCF7BAFD08490860BDE8F09F0000C2
:103C200088000020E800002033335340A596A93FC8
:103C30009A9999999999B93FEC0000202DE9F041A2
:103C400005460E461C4807681C480068001D00F029
:103C500049FE50B91948006890F82C10012088409E
:103C600017490968814316480160681C38B936B1A4
:103C700012480168091D134800F072FE1AE07C1911
:103C80000E4800684460BC4207D20C480168091D18
:103C90000D48006800F04AFE0CE008480168091D64
:103CA0000A48006800F042FE09480068844201D2D8
:103CB00007480460BDE8F081440000203000002087
:103CC000480000200C46002038000020340000206E
:103CD0006000002010B5044600F04EFE2348006846
:103CE000401C224908602248006840B9204804600E
:103CF0000846006801280DD100F06AF90AE01D4865
:103D0000006838B91A480068C06AE16A884201D878
:103D10001748046018480068401C1749086094F868
:103D20002C10012088401549096808431349086090
:103D3000E16A01EB8101124A02EB8100211D00F0D2
:103D40000FFE00F02BFE0B48006868B108480068C1
:103D5000C06AE16A884207D24FF080500949086082
:103D6000BFF34F8FBFF36F8F10BD000040000020E6
:103D7000300000204C0000205C00002048000020A3
:103D8000F444002004ED00E070B523E001F040F8B9
:103D90001348006808B9012000E00020054601F042
:103DA0003BFDBDB900F0E8FD0D48C068C468201DAA
:103DB00000F098FD0B480068401E0A4908600A4858
:103DC0000068401E0849086000F0E8FD204600F049
:103DD00060F800BF044800680028D7D170BD00001B
:103DE000F8450020400000203C00002070B504464B
:103DF0000D46206C70B1216CE0680844E060616899
:103E0000E068884201D32068E0602846226CE168BF
:103E1000FCF7D4F970BD2DE9F04104460F46154674
:103E20004FF00008A66B206C40B9206860BB60684A
:103E300001F070FC80460020606025E07DB93946C5
:103E4000226CA068FCF7BAF9216CA0680844A06055
:103E5000D4E90110884217D32068A06014E03946E5
:103E6000226CE068FCF7AAF9216CE068401AE06077
:103E70002168E068884203D2216C6068401AE060E3
:103E8000022D01D106B1761E701CA0634046BDE82C
:103E9000F08110B50446206B00F090FD204600F044
:103EA0008DFD10BD0A4A22F007000A4A1060002268
:103EB000084B5A6044F2F832074B5A6000221A60ED
:103EC000014644F2F8324A601A460A607047000020
:103ED000FC000020140000201C00002000BFFFF7A1
:103EE00053FF064800680128F9D94FF08050044973
:103EF0000860BFF34F8FBFF36F8FF0E7F4440020EB
:103F000004ED00E010B504464CB100206060206074
:103F1000E06000231A461946204601F06DFA10BDF4
:103F20002DE9F04106460D4617469846069C0DB908
:103F3000246000E02760E66325640121204601F04B
:103F40001BFA0020A064BDE8F0812DE9FF5F8046E8
:103F50000F469146DDE90E6A109CA9F10100216B24
:103F600001EB800B2BF0070B002507E0795D04F1D6
:103F700034004155785D00B902E06D1C102DF5D379
:103F800000BF0021432001550A2E00D30926E66216
:103F900066640020A064201D00F0C5FC04F1180038
:103FA00000F0C1FC2461C6F10A00A0616462002037
:103FB000E06484F8500041465846039A00F07EF9C8
:103FC0002060BAF1000F01D0CAF80040BDE8FF9FA1
:103FD00010B5002407E004EB84010F4A02EB8100D6
:103FE00000F094FC641C0A2CF5D30C4800F08EFC05
:103FF0000B4800F08BFC0B4800F088FC0A4800F0EE
:1040000085FC0A4800F082FC04480949086004481D
:104010000849086010BD0000F4440020BC450020A1
:10402000D0450020E4450020F84500200C46002043
:10403000340000203800002070B5054600F09CFCDC
:10404000A86B08B9012400E0002400F0A7FC20467A
:1040500070BD70B5054600F08FFCA86BE96B884217
:1040600001D1012400E0002400F098FC204670BD3E
:104070002DE9F3410D460098846C0027A06BE16B9D
:1040800088421BD294F945602A4669462046FFF7CC
:10409000C2FE0746701C60B9606A08B9012000E0E2
:1040A000002050B904F1240001F076FB28B101276B
:1040B00003E0701C40B284F8450000BF3846BDE8FC
:1040C000FC8100000A490968096809B9012100E07A
:1040D000002121B14FF0FF31064A116006E004498A
:1040E0000968C968C868034A4168116070470000E0
:1040F000340000206000002000BFBF2080F3118842
:10410000BFF34F8FBFF36F8F00BF00BFFEE700000C
:1041100010B5014600200A460B4C5369A34201D159
:10412000012300E0002373B1084C936AA34201D13C
:10413000012300E0002333B9936A0BB9012300E0A7
:10414000002303B1012010BD0C460020E4450020EF
:1041500070B5044600F010FC94F945501AE0A06CCC
:1041600038B100212046FFF783FF88B100F00AFD37
:104170000EE0606A08B9012000E0002038B904F1BF
:10418000240001F009FB18B100F0FCFC00E003E0A2
:10419000681E45B2002DE2DC00BFFF2084F8450018
:1041A00000F0FCFB00F0E8FB94F9445010E02069BB
:1041B00008B9012000E0002048B904F1100001F026
:1041C000EBFA08B100F0DEFC681E45B200E001E049
:1041D000002DECDC00BFFF2084F8440000F0DEFB83
:1041E00070BD00002DE9F04104464FF0000800F0DA
:1041F0000FFE2648006820B9FFF754FE012023492E
:10420000086044B1083404F0070020B104F007004E
:10421000C0F108000444002C32D044F2F83084424B
:104220002ED21B4F3846056801E02F462D6868687E
:10423000A04202D228680028F7D1164885421FD034
:10424000386800F10808286838606868001B102882
:1042500010D92E196868001B70606C6071680C487A
:1042600000E00068026852688A42FAD3026832604D
:10427000066000BF084968680968081A06490860AE
:1042800001F0CAFA4046BDE8F08100002800002095
:10429000140000201C0000202400002006480068B4
:1042A00030B10549096801F14800896C491C016079
:1042B000014800687047000030000020001F4FF0E8
:1042C00080730360001F21F001030360001F034B94
:1042D000036014380260203870470000F94000087D
:1042E00010B586B0142101A8FBF781FF4A48006889
:1042F0000090182200216846FCF770FF002406E0B9
:104300001DF80400FF2800D003E0601CC4B2182C84
:10431000F6DB00BF182C02D1002006B010BD9DF8BE
:1043200000009DF8011040EA012000B23B490882DC
:104330009DF802009DF8031040EA012001B23748C1
:1043400041829DF804009DF8051040EA012001B269
:10435000324881829DF806009DF8071040EA01204E
:1043600001B22E48C1829DF808009DF8091040EA6C
:10437000012000B2294908839DF80A009DF80B101E
:1043800040EA012001B2254841839DF80C009DF8C8
:104390000D1040EA012001B2204881839DF80E00F3
:1043A0009DF80F1040EA012001B21C48C1839DF81E
:1043B00010009DF8111040EA012000B2174908854D
:1043C0009DF812009DF8131040EA012001B2134835
:1043D00041859DF814009DF8151040EA012001B2B6
:1043E0000E4881859DF816009DF8171040EA0120BF
:1043F00001B20A48C185002406E01DF8041008A097
:10440000FEF70CF8601CC4B2182CF6DB06A0FEF711
:1044100005F8012081E70000586A000820460020C6
:1044200030782530327820000D0A000010B586B0B3
:104430004248007C8DF800004048008A000A8DF850
:1044400001003E48807C8DF802003C48408A000A0A
:104450008DF803003948007D8DF804003748808AC4
:10446000000A8DF805003548807D8DF80600334838
:10447000C08A000A8DF807003048007E8DF80800D9
:104480002E48008B000A8DF809002C48807E8DF89C
:104490000A002A48408B000A8DF80B002748007F4D
:1044A0008DF80C002548808B000A8DF80D002348FC
:1044B000807F8DF80E002148C08B000A8DF80F0018
:1044C0001E4890F828008DF810001C48008D000A46
:1044D0008DF81100194890F82A008DF8120017483D
:1044E000408D000A8DF81300144890F82C008DF8C8
:1044F00014001248808D000A8DF815000F4890F8BE
:104500002E008DF816000D48C08D000A8DF817009A
:10451000182200216846FCF794FE002406E01DF8EE
:10452000041007A0FDF77AFF601CC4B2182CF6DB5C
:1045300005A0FDF773FF06B010BD00002046002067
:1045400030782530327820000D0A000000201D4907
:1045500008701D4948701D48007A28B11948007834
:1045600040F00100174908701948007A28B1154831
:10457000007840F00200134908701648007D30B101
:104580001048007840F004000E49087009E0114816
:1045900090F8200028B10B48007840F00800094945
:1045A00008700D48007A28B10648007840F01000E5
:1045B000044908700848007D10B101200249487084
:1045C00070470000E4000020E50000203047002094
:1045D00078470020C0470020084800202DE9F04F10
:1045E00089B09349B1F90010A1F2DC50FCF75AF8F8
:1045F0000546904A9049FDF711FB04468F49FBF7A9
:1046000059FE83468A49B1F90210A1F2DC50FCF749
:1046100049F80546874A8849FDF700FB0446874963
:10462000FBF748FE08908249B1F90410A1F2DC5072
:10463000FCF738F80546824A7F49FDF7EFFA044651
:104640008049FBF737FE07907949B1F90610A1F5CB
:104650007A70FCF727F806904FF085415846FBF733
:10466000D1FD0446FCF751F8C0B205904FF08541EA
:104670000898FBF7C7FD0446FCF747F8C0B2049062
:104680000798FCF76FF880466F4A704BFBF729FFDD
:10469000064600226E4BFBF77DFE0446FCF749F808
:1046A000C0B203900698FCF75DF80646694A6A4B6B
:1046B000FBF717FF0446FCF73CF800F0FF0A6748D9
:1046C0000068FCF709F800B200F1B4084046FBF7B7
:1046D000F2FF0646624A634BFBF703FF0446FCF712
:1046E00028F8C0B2029060480068FBF7F5FF00B2FE
:1046F00000F1B4084046FBF7DEFF0646584A594B26
:10470000FBF7EFFE0446FCF714F8C0B201905748DF
:104710000068FBF7E1FF00B200F1B4084046FBF788
:10472000CAFF06464E4A4F4BFBF7DBFE0446FCF73A
:1047300000F8C0B20090002070E00299884206DCC8
:104740004B49095C41F00101494A115405E04849CF
:10475000095C21F00101464A11540199884206DCA6
:104760004349095C41F00201414A115405E04049C6
:10477000095C21F002013E4A11540099884206DC8E
:104780003B49095C41F00401394A115405E03849BC
:10479000095C21F00401364A11540599884206DC6F
:1047A0003349095C41F01001314A115405E03049A8
:1047B000095C21F010012E4A11540499884206DC4C
:1047C0002B49095C41F02001294A115405E0284990
:1047D000095C21F02001264A11540399884206DC25
:1047E0002349095C41F04001214A115405E0204968
:1047F000095C21F040011E4A1154504506DC1C4959
:10480000095C41F080011A4A115405E01849095C1D
:1048100021F08001164A1154411CC8B280288CDB5B
:10482000144A07210020FFF76EF909B0BDE8F08FA8
:1048300020460020000048420000FA4300002042C9
:1048400000008C42E22E6542CDCCCCCCCCCCEC3FEF
:1048500000005040A8C64B378941C03FD800002017
:1048600052499D8026C2D63FD4000020DC000020A3
:10487000684600205C6A000800B585B0012144F25A
:104880000400FCF7D1FF4FF40070ADF810001820C1
:104890008DF8130003208DF8120004A90F48FCF7CF
:1048A000F1F94FF4E13000900020ADF80400ADF8CC
:1048B0000600ADF80800ADF80C000820ADF80A00BD
:1048C00069460748FDF7F0FC01210548FDF7D3FCD8
:1048D00040210348FDF7C6FC05B000BD00080140BB
:1048E0000038014001460A69D1E901309860D1E9F8
:1048F000010358605068884201D1886850600020E8
:1049000008611068401E10601068704700F10801CF
:1049100041604FF0FF31816000F10801C160016129
:1049200000210160704700210161704710B5024607
:104930000B685C1C0CB9106907E002F1080000E08C
:104940004068446824689C42FAD944684C604C68CA
:10495000A160886041600A611468641C146010BD25
:1049600042684A6093688B609368596091600861FF
:1049700003685B1C0360704700BFBF2080F3118891
:10498000BFF34F8FBFF36F8F00BF03480068401C19
:1049900001490860704700002C00002006480068AC
:1049A000401E054908600846006820B9002080F3D1
:1049B000118800BF00BF70472C00002070B506466C
:1049C0003546B6B1083D2C4600F022FA6168094828
:1049D00000E00068026852688A42FAD302682260E6
:1049E000046005496068096808440349086000F0EC
:1049F00013FF70BD140000202400002003484FF076
:104A0000E021486107200861704700003F1901005C
:104A100070B50446002544B100F0FAF900212046A3
:104A2000FFF70CF900F0F8FE05463DB94FF0805055
:104A300003490860BFF34F8FBFF36F8F70BD000055
:104A400004ED00E02DE9F047044688464FF00009E8
:104A500000F0DEF916480668206800EB08052068BB
:104A6000B04207D92068A8420BD9B54209D94FF006
:104A7000010906E02068A84201D8B54201D94FF0EB
:104A800001092560B9F1000F03D0A81B0021FFF731
:104A9000D5F800F0C1FE07463FB94FF080500549F8
:104AA0000860BFF34F8FBFF36F8FBDE8F087000042
:104AB0004400002004ED00E070B50546FFF75CFF00
:104AC00015B92748006800E028460446201DFFF776
:104AD00009FF78B9E06A00EB8000224951F8200014
:104AE00040B994F82C10012088401F49096881437F
:104AF0001D480160A06A18B104F11800FFF7F2FE2A
:104B00001A480068401C194908601548006884422A
:104B100009D1211D1648FFF723FF16480068401CE5
:104B20001449086009E014480068401E12490860F2
:104B30002046FFF7AEF9FFF7C5FAFFF72FFF0F4842
:104B4000006858B106480068844207D14FF0805091
:104B50000B490860BFF34F8FBFF36F8F70BD00002C
:104B600030000020F4440020480000205C000020B9
:104B7000F84500203C000020400000204C000020B0
:104B800004ED00E001200149086070475400002056
:104B900070B505460C460548016818312846FFF7F0
:104BA000C5FE01212046FFF749F870BD3000002006
:104BB00070B505462C46002D4BD02649E06A0968A1
:104BC000C96A884245D2A06900F0004028B921484E
:104BD0000068C06AC0F10A00A061E16A01EB8101CE
:104BE0001D4A02EB81016069884201D1012000E089
:104BF000002050B3201DFFF775FE78B9E06A00EB86
:104C00008000154951F8200040B994F82C1001207B
:104C10008840124909688143104801600D480068C6
:104C2000C06AE06294F82C10012088400B490968A2
:104C300008430A490860E16A01EB8101064A02EB78
:104C40008100211DFFF78CFE03E002480068C06A66
:104C5000E06270BD30000020F444002048000020D5
:104C600070B505462C4674B31748006884422AD0B4
:104C7000FFF782FE2046FFF74BFA10B3201DFFF727
:104C800031FE94F82C10012088401049096808432F
:104C90000E490860E16A01EB81010D4A02EB8100D7
:104CA000211DFFF75DFE0849E06A0968C96A88426C
:104CB00007D34FF0805007490860BFF34F8FBFF311
:104CC0006F8FFFF76BFE70BD3000002048000020A2
:104CD000F444002004ED00E0034909680160034941
:104CE000096841607047000058000020440000201F
:104CF0001CB5114800210B468022CDE900100FA100
:104D0000104800F043FC0446012C14D100BFBF2022
:104D100080F31188BFF34F8FBFF36F8F00BF4FF049
:104D2000FF3009490860012008490860002008494F
:104D3000086000F011FA1CBD6400002049444C4595
:104D400000000000DD3E0008600000204C00002054
:104D50004400002070B50546FFF70EFE15B9254842
:104D6000006800E028460446201DFFF7BBFD78B927
:104D7000E06A00EB8000204951F8200040B994F827
:104D80002C10012088401D49096881431B4801609F
:104D9000A06A18B104F11800FFF7A4FD211D1848FE
:104DA000FFF7DEFDFFF7FAFD1648006828B1FFF7B0
:104DB000E3FDFFF787F9FFF7F1FD0E480068844235
:104DC00017D11048006840B14FF080500E4908607C
:104DD000BFF34F8FBFF36F8F0BE0094800680B499B
:104DE0000968884203D100200249086001E000F010
:104DF00017F870BD30000020F44400204800002067
:104E00000C4600204C00002004ED00E04000002093
:104E100002480068401C0149086070476800002093
:104E20001248006818B10120114908601DE00020F7
:104E30000F4908600F480068B0FA80F0C0F11F0108
:104E400001EB81020C4B03EB820042685268426026
:104E500000F108024368934202D1426852684260FE
:104E60004268D268054B1A6000BF70476800002096
:104E70005400002048000020F444002030000020AE
:104E80001CB504469A48006838B15CB1FFF728FAAF
:104E9000012807D1FDF7BAFF1CBD00BF9448006888
:104EA0000028FBD0002093490882002191484182CC
:104EB0008182C1824FF480508E49088301468D481B
:104EC00041838183C183FEF79BFD8BA200210846AD
:104ED000FEF7EAFD8CA201210020FEF7E5FDA5E02A
:104EE0000320FCF71DFD00B2824908810220FCF777
:104EF00017FD01B27F4841810020FCF711FD01B28E
:104F00007C4881810120FCF70BFD01B27948C18109
:104F1000B0F918007749B1F90810884203DD7548E7
:104F20000089744908837348B0F91A10B0F90A006F
:104F3000814202DD6F48418941836E48B0F91C10FF
:104F4000B0F90C00814202DD6A4881898183694899
:104F5000B0F91E10B0F90E00814202DD6548C1892A
:104F6000C1836448B0F910006249B1F90810884261
:104F700003DA604800895F4908825E48B0F9121080
:104F8000B0F90A00814202DA5A48418941825948FF
:104F9000B0F91410B0F90C00814202DA5548818949
:104FA00081825448B0F91610B0F90E00814202DA3D
:104FB0005048C189C1824F48B0F918004D49B1F934
:104FC0001010012354A2CDE9001002210020FEF7A9
:104FD0006BFD4848B0F91A004649B1F91210022396
:104FE0004DA2CDE9001003210020FEF75DFD4148F0
:104FF000B0F91C003F49B1F91410032346A2CDE9D2
:10500000001004210020FEF74FFD3A48B0F91E00C1
:105010003849B1F9161004233FA2CDE9001005214B
:105020000020FEF741FD1420FBF7F6FD3048006834
:1050300000287FF455AF01203A49086000BF2C4892
:1050400000680028FBD0FEF7DBFC37A200210846F1
:10505000FEF72AFD01203349091D08602548C08A52
:10506000643801B22348C18200202249088500210A
:10507000204841858185C1854FF07E518163416320
:10508000016341640164C1630020FBF7E9FE012074
:105090002A49C1F8A00117480088A0F2DC5000B2EC
:1050A0001449088508464088A0F2DC5001B2114836
:1050B00041858088A0F2DC5001B20E488185C0880D
:1050C000A0F57A7001B20B48C185FEF799FC1CA2CD
:1050D00000210846FEF7E8FC012012490C3908605F
:1050E000FFF7A4F9FEF78CFCFDF790FE00BFD3E6B6
:1050F0003C012242204600202020202020537461C1
:1051000072742043616C000020202020206D6178A3
:105110002020206D696E000025643A20253564202A
:1051200025356400B081214243616C69627261740B
:10513000696F6E0A576169742E2E0000008021424B
:10514000536176650A576169742E2E000148006824
:10515000704700002400002010B50A48006840F4A1
:105160007F00084908600846006840F07F400860FA
:10517000FFF744FC002004490860FAF7D3FF002041
:1051800010BD000020ED00E02C00002010B500BF95
:10519000BF2080F31188BFF34F8FBFF36F8F00BF25
:1051A00000F02AFA18B14FF080500449086000BF9F
:1051B000002080F3118800BF10BD000004ED00E066
:1051C0002DE9F04104460126002722460021012056
:1051D00000F007F805462846FEF794FE2846BDE88D
:1051E000F0812DE9F84307460D4690460DB900269B
:1051F00001E007FB05F606F14C00FEF7F3FF04465D
:1052000044B104F14C0943464A46294638460094C5
:10521000FEF786FE2046BDE8F88300002DE9FF4733
:1052200082B0054689461E464FF0000A2C4600BF54
:10523000FFF7A2FBD4F83880B8F1000F3BD0E76845
:1052400049462046FEF7D2FDDEB9A8F10100A06371
:10525000206810B9FFF722F86060206908B90120C2
:1052600000E0002008BB04F1100000F095FAE0B166
:105270004FF080503F490860BFF34F8FBFF36F8FEF
:1052800013E0E760606A08B9012000E0002060B91F
:1052900004F1240000F080FA38B14FF08050354915
:1052A0000860BFF34F8FBFF36F8FFFF777FB0120CD
:1052B00006B0BDE8F087049818B9FFF76FFB00202F
:1052C000F6E7BAF1000F04D16846FFF705FD4FF08D
:1052D000010AFFF763FBFFF79BFDFFF74DFB94F916
:1052E0004400401C10B9002084F8440094F94500A3
:1052F000401C10B9002084F84500FFF74FFB04A9BB
:10530000684600F015F940BB2046FEF795FEF0B167
:10531000206830B9FFF730FB6068FFF749FCFFF702
:105320003DFB04F124000499FFF732FC2046FEF710
:105330000FFF00F071FA00287FF47AAF4FF0805031
:105340000C490860BFF34F8FBFF36F8F70E72046A3
:10535000FEF7FEFE00F060FA6AE72046FEF7F8FE70
:1053600000F05AFA2046FEF767FE0028EED0002033
:105370009EE7000004ED00E070B505460E462C46A1
:10538000FFF7FAFAD4E90F12206801FB020060600F
:105390000020A0632068A060E06B401E226C2168A2
:1053A00000FB0210E060FF2084F8440084F8450010
:1053B0009EB9206908B9012000E00020A8B904F1D5
:1053C000100000F0E9F980B14FF080500949086001
:1053D000BFF34F8FBFF36F8F07E004F11000FFF7AB
:1053E00095FA04F12400FFF791FAFFF7D7FA0120AC
:1053F00070BD000004ED00E02DE9FF4383B00746D7
:1054000088461D464FF000093C4600BFFFF7B4FA3E
:10541000A06BE16B884201D3022D38D12A46414668
:105420002046FEF7F8FC0646A06C68B129462046E7
:10543000FEF71EFE28B34FF080503C490860BFF3D2
:105440004F8FBFF36F8F1CE0606A08B9012000E046
:10545000002068B904F1240000F09EF988B14FF0F3
:10546000805032490860BFF34F8FBFF36F8F08E061
:105470003EB14FF080502D490860BFF34F8FBFF30E
:105480006F8FFFF78BFA012007B0BDE8F083059816
:1054900018B9FFF783FA0020F6E7B9F1000F04D13D
:1054A00001A8FFF719FC4FF00109FFF777FAFFF7A2
:1054B000AFFCFFF761FA94F94400401C10B90020DA
:1054C00084F8440094F94500401C10B9002084F889
:1054D0004500FFF763FA05A901A800F029F8F0B923
:1054E0002046FEF7B6FDA0B104F110000599FFF7C4
:1054F0004FFB2046FEF72CFE00F08EF9002885D1E8
:105500004FF0805009490860BFF34F8FBFF36F8F92
:105510007CE72046FEF71CFE00F07EF976E7204689
:10552000FEF716FE00F078F90020ADE704ED00E08C
:1055300070B504460D46FFF71FFA12480268286846
:10554000401C08B9002619E00F4920680968884204
:1055500004D06068904201D801260FE06068101AFC
:105560002968884209D228686168511A401A28605F
:105570002046FFF7B1FB002600E00126FFF70EFAF8
:10558000304670BD44000020580000202DE9FF4F38
:1055900085B0804689461746DDE912ABB800FEF7B4
:1055A00021FE064656B15420FEF71CFE04460CB1FF
:1055B000266304E03046FFF701FA00E000247CB1E6
:1055C0000020CDE900ABCDE902403A4649464046CD
:1055D000089BFEF7BAFC2046FEF77CFB012501E0A4
:1055E0004FF0FF35284609B0BDE8F08F0149086843
:1055F00070470000440000202DE9F04100273A48A0
:105600000068002863D139480068451C37480560A8
:105610008DB93748D0F800803648006834490860B2
:105620003448C0F8008034480068401C32490860A3
:10563000FEF748FD00BF3148006885423BD300BFFC
:105640002B480068006808B9012000E0002020B164
:105650004FF0FF30294908602CE025480068C068F9
:10566000C4686668B54202D22448066022E0201D64
:10567000FFF738F9A06A18B104F11800FFF732F902
:1056800094F82C10012088401D49096808431C49E2
:105690000860E16A01EB81011A4A02EB8100211DD9
:1056A000FFF75EF91849E06A0968C96A8842C7D3FA
:1056B0000127C5E700BF14480068C06A00EB8000FE
:1056C000104951F82000012800D9012704E00F48B3
:1056D0000068401C0D4908600D48006800B10127B2
:1056E0003846BDE8F081000068000020440000203A
:1056F0003400002038000020580000206000002006
:1057000048000020F4440020300000205000002019
:105710005400002070B505462C460026ADB3A06CA1
:10572000401EA064616CE06A88422ED0A06C60BB11
:10573000201DFFF7D7F878B9E06A00EB8000144924
:1057400051F8200040B994F82C10012088401149EC
:10575000096881430F480160606CE062E06AC0F153
:105760000A00A06194F82C100120884009490968BA
:10577000084308490860E16A01EB8101044A02EB31
:105780008100211DFFF7ECF80126304670BD0000B6
:10579000F44400204800002070B50646F068C46854
:1057A00004F11800FFF79EF815480068A8B9201DFD
:1057B000FFF798F894F82C100120884011490968E7
:1057C000084310490860E16A01EB81010E4A02EBCF
:1057D0008100211DFFF7C4F804E004F118010B4813
:1057E000FFF7BEF80A49E06A0968C96A884204D925
:1057F000012501200749086000E00025284670BD0A
:105800006800002048000020F4440020E445002007
:10581000300000205400002070B500240026FFF75F
:10582000ABF82E480068401E2C4908600846006806
:1058300000284FD12A48006800284BD024E029488E
:10584000C068C46804F11800FFF74CF8201DFFF78A
:1058500049F894F82C10012088402349096808432E
:1058600021490860E16A01EB8101204A02EB8100D5
:10587000211DFFF775F81E49E06A0968C96A884268
:1058800002D301201B4908601648006808B90120AE
:1058900000E000200028D2D00CB1FEF713FC16481F
:1058A000056865B100BFFFF7A7FE10B101201149DF
:1058B00008606D1E002DF6D100200F4908600D48CC
:1058C000006838B1012630070C490860BFF34F8FDC
:1058D000BFF36F8FFFF762F8304670BD680000209D
:1058E00040000020E445002048000020F44400204F
:1058F00030000020540000205000002004ED00E0A3
:105900000000000000000000002F00000000070061
:10591000070000147F147F1400242A7F2A120062DB
:105920006408132300364955225000000503000087
:1059300000001C224100000041221C000014083E0F
:1059400008140008083E0808000000A060000008D5
:105950000808080800006060000000201008040229
:10596000003E5149453E0000427F400000426151E7
:105970004946002141454B31001814127F10002781
:1059800045454539003C4A49493000017109050344
:1059900000364949493600064949291E0000363675
:1059A00000000000563600000008142241000014D8
:1059B00014141414000041221408000201510906B5
:1059C00000324959513E007C1211127C007F494936
:1059D0004936003E41414122007F4141221C007F67
:1059E00049494941007F09090901003E4149497A75
:1059F000007F0808087F0000417F410000204041EF
:105A00003F01007F08142241007F40404040007F5A
:105A1000020C027F007F0408107F003E4141413E9E
:105A2000007F09090906003E4151215E007F0919E6
:105A300029460046494949310001017F0101003FE3
:105A40004040403F001F2040201F003F4038403F63
:105A500000631408146300070870080700615149C7
:105A6000454300007F41410000552A552A5500005A
:105A700041417F00000402010204004040404040D8
:105A8000000001020400002054545478007F484470
:105A9000443800384444442000384444487F0038A7
:105AA0005454541800087E0901020018A4A4A47CD0
:105AB000007F080404780000447D4000004080849A
:105AC0007D00007F102844000000417F4000007CE2
:105AD00004180478007C08040478003844444438EE
